{
  "abi": [
    {
      "inputs": [
        {
          "internalType": "string",
          "name": "name",
          "type": "string"
        },
        {
          "internalType": "string",
          "name": "symbol",
          "type": "string"
        }
      ],
      "stateMutability": "nonpayable",
      "type": "constructor"
    },
    {
      "inputs": [
        {
          "internalType": "address",
          "name": "sender",
          "type": "address"
        },
        {
          "internalType": "uint256",
          "name": "tokenId",
          "type": "uint256"
        },
        {
          "internalType": "address",
          "name": "owner",
          "type": "address"
        }
      ],
      "name": "ERC721IncorrectOwner",
      "type": "error"
    },
    {
      "inputs": [
        {
          "internalType": "address",
          "name": "operator",
          "type": "address"
        },
        {
          "internalType": "uint256",
          "name": "tokenId",
          "type": "uint256"
        }
      ],
      "name": "ERC721InsufficientApproval",
      "type": "error"
    },
    {
      "inputs": [
        {
          "internalType": "address",
          "name": "approver",
          "type": "address"
        }
      ],
      "name": "ERC721InvalidApprover",
      "type": "error"
    },
    {
      "inputs": [
        {
          "internalType": "address",
          "name": "operator",
          "type": "address"
        }
      ],
      "name": "ERC721InvalidOperator",
      "type": "error"
    },
    {
      "inputs": [
        {
          "internalType": "address",
          "name": "owner",
          "type": "address"
        }
      ],
      "name": "ERC721InvalidOwner",
      "type": "error"
    },
    {
      "inputs": [
        {
          "internalType": "address",
          "name": "receiver",
          "type": "address"
        }
      ],
      "name": "ERC721InvalidReceiver",
      "type": "error"
    },
    {
      "inputs": [
        {
          "internalType": "address",
          "name": "sender",
          "type": "address"
        }
      ],
      "name": "ERC721InvalidSender",
      "type": "error"
    },
    {
      "inputs": [
        {
          "internalType": "uint256",
          "name": "tokenId",
          "type": "uint256"
        }
      ],
      "name": "ERC721NonexistentToken",
      "type": "error"
    },
    {
      "anonymous": false,
      "inputs": [
        {
          "indexed": true,
          "internalType": "address",
          "name": "owner",
          "type": "address"
        },
        {
          "indexed": true,
          "internalType": "address",
          "name": "approved",
          "type": "address"
        },
        {
          "indexed": true,
          "internalType": "uint256",
          "name": "tokenId",
          "type": "uint256"
        }
      ],
      "name": "Approval",
      "type": "event"
    },
    {
      "anonymous": false,
      "inputs": [
        {
          "indexed": true,
          "internalType": "address",
          "name": "owner",
          "type": "address"
        },
        {
          "indexed": true,
          "internalType": "address",
          "name": "operator",
          "type": "address"
        },
        {
          "indexed": false,
          "internalType": "bool",
          "name": "approved",
          "type": "bool"
        }
      ],
      "name": "ApprovalForAll",
      "type": "event"
    },
    {
      "anonymous": false,
      "inputs": [
        {
          "indexed": true,
          "internalType": "address",
          "name": "from",
          "type": "address"
        },
        {
          "indexed": true,
          "internalType": "address",
          "name": "to",
          "type": "address"
        },
        {
          "indexed": true,
          "internalType": "uint256",
          "name": "tokenId",
          "type": "uint256"
        }
      ],
      "name": "Transfer",
      "type": "event"
    },
    {
      "inputs": [
        {
          "internalType": "address",
          "name": "to",
          "type": "address"
        },
        {
          "internalType": "uint256",
          "name": "tokenId",
          "type": "uint256"
        }
      ],
      "name": "approve",
      "outputs": [],
      "stateMutability": "nonpayable",
      "type": "function"
    },
    {
      "inputs": [
        {
          "internalType": "address",
          "name": "owner",
          "type": "address"
        }
      ],
      "name": "balanceOf",
      "outputs": [
        {
          "internalType": "uint256",
          "name": "",
          "type": "uint256"
        }
      ],
      "stateMutability": "view",
      "type": "function"
    },
    {
      "inputs": [
        {
          "internalType": "address",
          "name": "to",
          "type": "address"
        },
        {
          "internalType": "uint256",
          "name": "numberOfTokens",
          "type": "uint256"
        }
      ],
      "name": "batchMint",
      "outputs": [],
      "stateMutability": "nonpayable",
      "type": "function"
    },
    {
      "inputs": [
        {
          "internalType": "uint256",
          "name": "tokenId",
          "type": "uint256"
        }
      ],
      "name": "getApproved",
      "outputs": [
        {
          "internalType": "address",
          "name": "",
          "type": "address"
        }
      ],
      "stateMutability": "view",
      "type": "function"
    },
    {
      "inputs": [
        {
          "internalType": "address",
          "name": "owner",
          "type": "address"
        },
        {
          "internalType": "address",
          "name": "operator",
          "type": "address"
        }
      ],
      "name": "isApprovedForAll",
      "outputs": [
        {
          "internalType": "bool",
          "name": "",
          "type": "bool"
        }
      ],
      "stateMutability": "view",
      "type": "function"
    },
    {
      "inputs": [
        {
          "internalType": "address",
          "name": "to",
          "type": "address"
        }
      ],
      "name": "mint",
      "outputs": [],
      "stateMutability": "nonpayable",
      "type": "function"
    },
    {
      "inputs": [],
      "name": "name",
      "outputs": [
        {
          "internalType": "string",
          "name": "",
          "type": "string"
        }
      ],
      "stateMutability": "view",
      "type": "function"
    },
    {
      "inputs": [
        {
          "internalType": "uint256",
          "name": "tokenId",
          "type": "uint256"
        }
      ],
      "name": "ownerOf",
      "outputs": [
        {
          "internalType": "address",
          "name": "",
          "type": "address"
        }
      ],
      "stateMutability": "view",
      "type": "function"
    },
    {
      "inputs": [
        {
          "internalType": "address",
          "name": "from",
          "type": "address"
        },
        {
          "internalType": "address",
          "name": "to",
          "type": "address"
        },
        {
          "internalType": "uint256",
          "name": "tokenId",
          "type": "uint256"
        }
      ],
      "name": "safeTransferFrom",
      "outputs": [],
      "stateMutability": "nonpayable",
      "type": "function"
    },
    {
      "inputs": [
        {
          "internalType": "address",
          "name": "from",
          "type": "address"
        },
        {
          "internalType": "address",
          "name": "to",
          "type": "address"
        },
        {
          "internalType": "uint256",
          "name": "tokenId",
          "type": "uint256"
        },
        {
          "internalType": "bytes",
          "name": "data",
          "type": "bytes"
        }
      ],
      "name": "safeTransferFrom",
      "outputs": [],
      "stateMutability": "nonpayable",
      "type": "function"
    },
    {
      "inputs": [
        {
          "internalType": "address",
          "name": "operator",
          "type": "address"
        },
        {
          "internalType": "bool",
          "name": "approved",
          "type": "bool"
        }
      ],
      "name": "setApprovalForAll",
      "outputs": [],
      "stateMutability": "nonpayable",
      "type": "function"
    },
    {
      "inputs": [
        {
          "internalType": "bytes4",
          "name": "interfaceId",
          "type": "bytes4"
        }
      ],
      "name": "supportsInterface",
      "outputs": [
        {
          "internalType": "bool",
          "name": "",
          "type": "bool"
        }
      ],
      "stateMutability": "view",
      "type": "function"
    },
    {
      "inputs": [],
      "name": "symbol",
      "outputs": [
        {
          "internalType": "string",
          "name": "",
          "type": "string"
        }
      ],
      "stateMutability": "view",
      "type": "function"
    },
    {
      "inputs": [
        {
          "internalType": "uint256",
          "name": "tokenId",
          "type": "uint256"
        }
      ],
      "name": "tokenURI",
      "outputs": [
        {
          "internalType": "string",
          "name": "",
          "type": "string"
        }
      ],
      "stateMutability": "view",
      "type": "function"
    },
    {
      "inputs": [
        {
          "internalType": "address",
          "name": "from",
          "type": "address"
        },
        {
          "internalType": "address",
          "name": "to",
          "type": "address"
        },
        {
          "internalType": "uint256",
          "name": "tokenId",
          "type": "uint256"
        }
      ],
      "name": "transferFrom",
      "outputs": [],
      "stateMutability": "nonpayable",
      "type": "function"
    }
  ],
  "bytecode": {
    "object": "0x60806040523480156200001157600080fd5b50604051620013da380380620013da833981016040819052620000349162000123565b818160006200004483826200021c565b5060016200005382826200021c565b5050505050620002e8565b634e487b7160e01b600052604160045260246000fd5b600082601f8301126200008657600080fd5b81516001600160401b0380821115620000a357620000a36200005e565b604051601f8301601f19908116603f01168101908282118183101715620000ce57620000ce6200005e565b81604052838152602092508683858801011115620000eb57600080fd5b600091505b838210156200010f5785820183015181830184015290820190620000f0565b600093810190920192909252949350505050565b600080604083850312156200013757600080fd5b82516001600160401b03808211156200014f57600080fd5b6200015d8683870162000074565b935060208501519150808211156200017457600080fd5b50620001838582860162000074565b9150509250929050565b600181811c90821680620001a257607f821691505b602082108103620001c357634e487b7160e01b600052602260045260246000fd5b50919050565b601f8211156200021757600081815260208120601f850160051c81016020861015620001f25750805b601f850160051c820191505b818110156200021357828155600101620001fe565b5050505b505050565b81516001600160401b038111156200023857620002386200005e565b62000250816200024984546200018d565b84620001c9565b602080601f8311600181146200028857600084156200026f5750858301515b600019600386901b1c1916600185901b17855562000213565b600085815260208120601f198616915b82811015620002b95788860151825594840194600190910190840162000298565b5085821015620002d85787850151600019600388901b60f8161c191681555b5050505050600190811b01905550565b6110e280620002f86000396000f3fe608060405234801561001057600080fd5b50600436106100f55760003560e01c80636352211e11610097578063a22cb46511610066578063a22cb465146101ff578063b88d4fde14610212578063c87b56dd14610225578063e985e9c51461023857600080fd5b80636352211e146101b05780636a627842146101c357806370a08231146101d657806395d89b41146101f757600080fd5b8063095ea7b3116100d3578063095ea7b31461016257806323b872dd1461017757806342842e0e1461018a57806343508b051461019d57600080fd5b806301ffc9a7146100fa57806306fdde0314610122578063081812fc14610137575b600080fd5b61010d610108366004610d10565b61024b565b60405190151581526020015b60405180910390f35b61012a61029d565b6040516101199190610d7d565b61014a610145366004610d90565b61032f565b6040516001600160a01b039091168152602001610119565b610175610170366004610dc5565b610358565b005b610175610185366004610def565b610367565b610175610198366004610def565b6103f7565b6101756101ab366004610dc5565b610417565b61014a6101be366004610d90565b6104ac565b6101756101d1366004610e2b565b6104b7565b6101e96101e4366004610e2b565b610534565b604051908152602001610119565b61012a61057c565b61017561020d366004610e46565b61058b565b610175610220366004610e98565b610596565b61012a610233366004610d90565b6105ad565b61010d610246366004610f74565b610622565b60006001600160e01b031982166380ac58cd60e01b148061027c57506001600160e01b03198216635b5e139f60e01b145b8061029757506301ffc9a760e01b6001600160e01b03198316145b92915050565b6060600080546102ac90610fa7565b80601f01602080910402602001604051908101604052809291908181526020018280546102d890610fa7565b80156103255780601f106102fa57610100808354040283529160200191610325565b820191906000526020600020905b81548152906001019060200180831161030857829003601f168201915b5050505050905090565b600061033a82610650565b506000828152600460205260409020546001600160a01b0316610297565b610363828233610689565b5050565b6001600160a01b03821661039657604051633250574960e11b8152600060048201526024015b60405180910390fd5b60006103a3838333610696565b9050836001600160a01b0316816001600160a01b0316146103f1576040516364283d7b60e01b81526001600160a01b038086166004830152602482018490528216604482015260640161038d565b50505050565b61041283838360405180602001604052806000815250610596565b505050565b6001600160a01b03821661046d5760405162461bcd60e51b815260206004820181905260248201527f4552433732313a206d696e7420746f20746865207a65726f2061646472657373604482015260640161038d565b60005b81811015610412576104848360065461078f565b6006805490600061049483610ff7565b919050555080806104a490610ff7565b915050610470565b600061029782610650565b6001600160a01b03811661050d5760405162461bcd60e51b815260206004820181905260248201527f4552433732313a206d696e7420746f20746865207a65726f2061646472657373604482015260640161038d565b6105198160065461078f565b60016006600082825461052c9190611010565b909155505050565b60006001600160a01b038216610560576040516322718ad960e21b81526000600482015260240161038d565b506001600160a01b031660009081526003602052604090205490565b6060600180546102ac90610fa7565b6103633383836107f4565b6105a1848484610367565b6103f184848484610893565b60606105b882610650565b5060006105d060408051602081019091526000815290565b905060008151116105f0576040518060200160405280600081525061061b565b806105fa846109bc565b60405160200161060b929190611023565b6040516020818303038152906040525b9392505050565b6001600160a01b03918216600090815260056020908152604080832093909416825291909152205460ff1690565b6000818152600260205260408120546001600160a01b03168061029757604051637e27328960e01b81526004810184905260240161038d565b6104128383836001610a4f565b6000828152600260205260408120546001600160a01b03908116908316156106c3576106c3818486610b55565b6001600160a01b03811615610701576106e0600085600080610a4f565b6001600160a01b038116600090815260036020526040902080546000190190555b6001600160a01b03851615610730576001600160a01b0385166000908152600360205260409020805460010190555b60008481526002602052604080822080546001600160a01b0319166001600160a01b0389811691821790925591518793918516917fddf252ad1be2c89b69c2b068fc378daa952ba7f163c4a11628f55a4df523b3ef91a4949350505050565b6001600160a01b0382166107b957604051633250574960e11b81526000600482015260240161038d565b60006107c783836000610696565b90506001600160a01b03811615610412576040516339e3563760e11b81526000600482015260240161038d565b6001600160a01b03821661082657604051630b61174360e31b81526001600160a01b038316600482015260240161038d565b6001600160a01b03838116600081815260056020908152604080832094871680845294825291829020805460ff191686151590811790915591519182527f17307eab39ab6107e8899845ad3d59bd9653f200f220920489ca2b5937696c31910160405180910390a3505050565b6001600160a01b0383163b156103f157604051630a85bd0160e11b81526001600160a01b0384169063150b7a02906108d5903390889087908790600401611052565b6020604051808303816000875af1925050508015610910575060408051601f3d908101601f1916820190925261090d9181019061108f565b60015b610979573d80801561093e576040519150601f19603f3d011682016040523d82523d6000602084013e610943565b606091505b50805160000361097157604051633250574960e11b81526001600160a01b038516600482015260240161038d565b805181602001fd5b6001600160e01b03198116630a85bd0160e11b146109b557604051633250574960e11b81526001600160a01b038516600482015260240161038d565b5050505050565b606060006109c983610bb9565b600101905060008167ffffffffffffffff8111156109e9576109e9610e82565b6040519080825280601f01601f191660200182016040528015610a13576020820181803683370190505b5090508181016020015b600019016f181899199a1a9b1b9c1cb0b131b232b360811b600a86061a8153600a8504945084610a1d57509392505050565b8080610a6357506001600160a01b03821615155b15610b25576000610a7384610650565b90506001600160a01b03831615801590610a9f5750826001600160a01b0316816001600160a01b031614155b8015610ab25750610ab08184610622565b155b15610adb5760405163a9fbf51f60e01b81526001600160a01b038416600482015260240161038d565b8115610b235783856001600160a01b0316826001600160a01b03167f8c5be1e5ebec7d5bd14f71427d1e84f3dd0314c0f7b2291e5b200ac8c7c3b92560405160405180910390a45b505b5050600090815260046020526040902080546001600160a01b0319166001600160a01b0392909216919091179055565b610b60838383610c91565b610412576001600160a01b038316610b8e57604051637e27328960e01b81526004810182905260240161038d565b60405163177e802f60e01b81526001600160a01b03831660048201526024810182905260440161038d565b60008072184f03e93ff9f4daa797ed6e38ed64bf6a1f0160401b8310610bf85772184f03e93ff9f4daa797ed6e38ed64bf6a1f0160401b830492506040015b6d04ee2d6d415b85acef81000000008310610c24576d04ee2d6d415b85acef8100000000830492506020015b662386f26fc100008310610c4257662386f26fc10000830492506010015b6305f5e1008310610c5a576305f5e100830492506008015b6127108310610c6e57612710830492506004015b60648310610c80576064830492506002015b600a83106102975760010192915050565b60006001600160a01b03831615801590610cef5750826001600160a01b0316846001600160a01b03161480610ccb5750610ccb8484610622565b80610cef57506000828152600460205260409020546001600160a01b038481169116145b949350505050565b6001600160e01b031981168114610d0d57600080fd5b50565b600060208284031215610d2257600080fd5b813561061b81610cf7565b60005b83811015610d48578181015183820152602001610d30565b50506000910152565b60008151808452610d69816020860160208601610d2d565b601f01601f19169290920160200192915050565b60208152600061061b6020830184610d51565b600060208284031215610da257600080fd5b5035919050565b80356001600160a01b0381168114610dc057600080fd5b919050565b60008060408385031215610dd857600080fd5b610de183610da9565b946020939093013593505050565b600080600060608486031215610e0457600080fd5b610e0d84610da9565b9250610e1b60208501610da9565b9150604084013590509250925092565b600060208284031215610e3d57600080fd5b61061b82610da9565b60008060408385031215610e5957600080fd5b610e6283610da9565b915060208301358015158114610e7757600080fd5b809150509250929050565b634e487b7160e01b600052604160045260246000fd5b60008060008060808587031215610eae57600080fd5b610eb785610da9565b9350610ec560208601610da9565b925060408501359150606085013567ffffffffffffffff80821115610ee957600080fd5b818701915087601f830112610efd57600080fd5b813581811115610f0f57610f0f610e82565b604051601f8201601f19908116603f01168101908382118183101715610f3757610f37610e82565b816040528281528a6020848701011115610f5057600080fd5b82602086016020830137600060208483010152809550505050505092959194509250565b60008060408385031215610f8757600080fd5b610f9083610da9565b9150610f9e60208401610da9565b90509250929050565b600181811c90821680610fbb57607f821691505b602082108103610fdb57634e487b7160e01b600052602260045260246000fd5b50919050565b634e487b7160e01b600052601160045260246000fd5b60006001820161100957611009610fe1565b5060010190565b8082018082111561029757610297610fe1565b60008351611035818460208801610d2d565b835190830190611049818360208801610d2d565b01949350505050565b6001600160a01b038581168252841660208201526040810183905260806060820181905260009061108590830184610d51565b9695505050505050565b6000602082840312156110a157600080fd5b815161061b81610cf756fea264697066735822122035a91933de6b83b2bac6685d8791fccc5eb9ab1e227a508546212a372cbaaf6c64736f6c63430008140033",
    "linkReferences": {}
  },
  "methodIdentifiers": {
    "approve(address,uint256)": "095ea7b3",
    "balanceOf(address)": "70a08231",
    "batchMint(address,uint256)": "43508b05",
    "getApproved(uint256)": "081812fc",
    "isApprovedForAll(address,address)": "e985e9c5",
    "mint(address)": "6a627842",
    "name()": "06fdde03",
    "ownerOf(uint256)": "6352211e",
    "safeTransferFrom(address,address,uint256)": "42842e0e",
    "safeTransferFrom(address,address,uint256,bytes)": "b88d4fde",
    "setApprovalForAll(address,bool)": "a22cb465",
    "supportsInterface(bytes4)": "01ffc9a7",
    "symbol()": "95d89b41",
    "tokenURI(uint256)": "c87b56dd",
    "transferFrom(address,address,uint256)": "23b872dd"
  },
  "id": 35
}