{
  "abi": [
    {
      "anonymous": false,
      "inputs": [
        {
          "indexed": false,
          "internalType": "address",
          "name": "tokenContract",
          "type": "address"
        },
        {
          "indexed": false,
          "internalType": "uint256",
          "name": "tokenId",
          "type": "uint256"
        },
        {
          "indexed": false,
          "internalType": "address",
          "name": "from",
          "type": "address"
        },
        {
          "indexed": false,
          "internalType": "address",
          "name": "to",
          "type": "address"
        }
      ],
      "name": "AssetTransferred",
      "type": "event"
    },
    {
      "inputs": [
        {
          "internalType": "address",
          "name": "_address",
          "type": "address"
        }
      ],
      "name": "addToBlackList",
      "outputs": [],
      "stateMutability": "nonpayable",
      "type": "function"
    },
    {
      "inputs": [
        {
          "internalType": "address",
          "name": "",
          "type": "address"
        }
      ],
      "name": "addressExists",
      "outputs": [
        {
          "internalType": "bool",
          "name": "",
          "type": "bool"
        }
      ],
      "stateMutability": "view",
      "type": "function"
    },
    {
      "inputs": [
        {
          "internalType": "uint256",
          "name": "",
          "type": "uint256"
        }
      ],
      "name": "auctionArray",
      "outputs": [
        {
          "internalType": "address",
          "name": "tokenContract",
          "type": "address"
        },
        {
          "internalType": "uint256",
          "name": "tokenId",
          "type": "uint256"
        },
        {
          "internalType": "uint256",
          "name": "createdTime",
          "type": "uint256"
        }
      ],
      "stateMutability": "view",
      "type": "function"
    },
    {
      "inputs": [
        {
          "internalType": "address",
          "name": "",
          "type": "address"
        },
        {
          "internalType": "uint256",
          "name": "",
          "type": "uint256"
        }
      ],
      "name": "auctions",
      "outputs": [
        {
          "internalType": "address",
          "name": "seller",
          "type": "address"
        },
        {
          "internalType": "uint32",
          "name": "startTime",
          "type": "uint32"
        },
        {
          "internalType": "uint32",
          "name": "endOfBiddingPeriod",
          "type": "uint32"
        },
        {
          "internalType": "uint32",
          "name": "endOfRevealPeriod",
          "type": "uint32"
        },
        {
          "internalType": "uint64",
          "name": "numUnrevealedBids",
          "type": "uint64"
        },
        {
          "internalType": "uint96",
          "name": "highestBid",
          "type": "uint96"
        },
        {
          "internalType": "uint96",
          "name": "secondHighestBid",
          "type": "uint96"
        },
        {
          "internalType": "address",
          "name": "highestBidder",
          "type": "address"
        },
        {
          "internalType": "uint64",
          "name": "index",
          "type": "uint64"
        },
        {
          "internalType": "address",
          "name": "erc20Token",
          "type": "address"
        }
      ],
      "stateMutability": "view",
      "type": "function"
    },
    {
      "inputs": [
        {
          "internalType": "address",
          "name": "",
          "type": "address"
        },
        {
          "internalType": "uint256",
          "name": "",
          "type": "uint256"
        },
        {
          "internalType": "uint64",
          "name": "",
          "type": "uint64"
        },
        {
          "internalType": "address",
          "name": "",
          "type": "address"
        }
      ],
      "name": "bids",
      "outputs": [
        {
          "internalType": "bytes20",
          "name": "commitment",
          "type": "bytes20"
        },
        {
          "internalType": "uint96",
          "name": "collateral",
          "type": "uint96"
        }
      ],
      "stateMutability": "view",
      "type": "function"
    },
    {
      "inputs": [
        {
          "internalType": "address",
          "name": "tokenContract",
          "type": "address"
        },
        {
          "internalType": "uint256",
          "name": "tokenId",
          "type": "uint256"
        },
        {
          "internalType": "bytes20",
          "name": "commitment",
          "type": "bytes20"
        },
        {
          "internalType": "uint256",
          "name": "erc20Tokens",
          "type": "uint256"
        }
      ],
      "name": "commitBid",
      "outputs": [],
      "stateMutability": "nonpayable",
      "type": "function"
    },
    {
      "inputs": [
        {
          "internalType": "address",
          "name": "tokenContract",
          "type": "address"
        },
        {
          "internalType": "uint256",
          "name": "tokenId",
          "type": "uint256"
        },
        {
          "internalType": "address",
          "name": "erc20Token",
          "type": "address"
        },
        {
          "internalType": "uint32",
          "name": "startTime",
          "type": "uint32"
        },
        {
          "internalType": "uint32",
          "name": "bidPeriod",
          "type": "uint32"
        },
        {
          "internalType": "uint32",
          "name": "revealPeriod",
          "type": "uint32"
        },
        {
          "internalType": "uint96",
          "name": "reservePrice",
          "type": "uint96"
        }
      ],
      "name": "createAuction",
      "outputs": [],
      "stateMutability": "nonpayable",
      "type": "function"
    },
    {
      "inputs": [
        {
          "internalType": "address",
          "name": "tokenContract",
          "type": "address"
        },
        {
          "internalType": "uint256",
          "name": "tokenId",
          "type": "uint256"
        }
      ],
      "name": "endAuction",
      "outputs": [],
      "stateMutability": "nonpayable",
      "type": "function"
    },
    {
      "inputs": [
        {
          "internalType": "address",
          "name": "tokenContract",
          "type": "address"
        },
        {
          "internalType": "uint256",
          "name": "tokenId",
          "type": "uint256"
        }
      ],
      "name": "getAuction",
      "outputs": [
        {
          "components": [
            {
              "internalType": "address",
              "name": "seller",
              "type": "address"
            },
            {
              "internalType": "uint32",
              "name": "startTime",
              "type": "uint32"
            },
            {
              "internalType": "uint32",
              "name": "endOfBiddingPeriod",
              "type": "uint32"
            },
            {
              "internalType": "uint32",
              "name": "endOfRevealPeriod",
              "type": "uint32"
            },
            {
              "internalType": "uint64",
              "name": "numUnrevealedBids",
              "type": "uint64"
            },
            {
              "internalType": "uint96",
              "name": "highestBid",
              "type": "uint96"
            },
            {
              "internalType": "uint96",
              "name": "secondHighestBid",
              "type": "uint96"
            },
            {
              "internalType": "address",
              "name": "highestBidder",
              "type": "address"
            },
            {
              "internalType": "uint64",
              "name": "index",
              "type": "uint64"
            },
            {
              "internalType": "address",
              "name": "erc20Token",
              "type": "address"
            }
          ],
          "internalType": "struct TokenizedVickreyAuction.Auction",
          "name": "auction",
          "type": "tuple"
        }
      ],
      "stateMutability": "view",
      "type": "function"
    },
    {
      "inputs": [],
      "name": "getAuctionArray",
      "outputs": [
        {
          "components": [
            {
              "internalType": "address",
              "name": "tokenContract",
              "type": "address"
            },
            {
              "internalType": "uint256",
              "name": "tokenId",
              "type": "uint256"
            },
            {
              "internalType": "uint256",
              "name": "createdTime",
              "type": "uint256"
            }
          ],
          "internalType": "struct TokenizedVickreyAuction.AuctionIndex[]",
          "name": "",
          "type": "tuple[]"
        }
      ],
      "stateMutability": "view",
      "type": "function"
    },
    {
      "inputs": [
        {
          "internalType": "address",
          "name": "tokenContract",
          "type": "address"
        },
        {
          "internalType": "uint256",
          "name": "tokenId",
          "type": "uint256"
        },
        {
          "internalType": "uint64",
          "name": "auctionIndex",
          "type": "uint64"
        },
        {
          "internalType": "address",
          "name": "bidder",
          "type": "address"
        }
      ],
      "name": "getBid",
      "outputs": [
        {
          "components": [
            {
              "internalType": "bytes20",
              "name": "commitment",
              "type": "bytes20"
            },
            {
              "internalType": "uint96",
              "name": "collateral",
              "type": "uint96"
            }
          ],
          "internalType": "struct TokenizedVickreyAuction.Bid",
          "name": "bid",
          "type": "tuple"
        }
      ],
      "stateMutability": "view",
      "type": "function"
    },
    {
      "inputs": [
        {
          "internalType": "address",
          "name": "_address",
          "type": "address"
        }
      ],
      "name": "removeFromBlackList",
      "outputs": [],
      "stateMutability": "nonpayable",
      "type": "function"
    },
    {
      "inputs": [
        {
          "internalType": "address",
          "name": "tokenContract",
          "type": "address"
        },
        {
          "internalType": "uint256",
          "name": "tokenId",
          "type": "uint256"
        },
        {
          "internalType": "uint96",
          "name": "bidValue",
          "type": "uint96"
        },
        {
          "internalType": "bytes32",
          "name": "nonce",
          "type": "bytes32"
        }
      ],
      "name": "revealBid",
      "outputs": [],
      "stateMutability": "nonpayable",
      "type": "function"
    },
    {
      "inputs": [
        {
          "internalType": "address",
          "name": "tokenContract",
          "type": "address"
        },
        {
          "internalType": "uint256",
          "name": "tokenId",
          "type": "uint256"
        },
        {
          "internalType": "uint64",
          "name": "auctionIndex",
          "type": "uint64"
        }
      ],
      "name": "withdrawCollateral",
      "outputs": [],
      "stateMutability": "nonpayable",
      "type": "function"
    }
  ],
  "bytecode": {
    "object": "0x608060405234801561001057600080fd5b50611f18806100206000396000f3fe608060405234801561001057600080fd5b50600436106100ea5760003560e01c80637cae57741161008c578063afa1671711610066578063afa16717146104df578063ea25c93f146104f2578063f16332db1461056a578063f43bad31146105a257600080fd5b80637cae57741461048657806388cedbc414610499578063a5025222146104ac57600080fd5b80634a49ac4c116100c85780634a49ac4c146102f75780634b288402146103265780636f9919b51461033b578063762a66a21461034e57600080fd5b8063110831ac146100ef578063417c73a7146101b457806344f91c1e146101e8575b600080fd5b6101816100fd3660046119bd565b604080518082018252600080825260209182018190526001600160a01b039687168152600282528281209581529481528185206001600160401b039490941685529283528084209190941683528152908290208251808401909352546001600160601b0319606082901b168352600160a01b90046001600160601b03169082015290565b6040805182516001600160601b03191681526020928301516001600160601b031692810192909252015b60405180910390f35b6101e66101c2366004611a0a565b6001600160a01b03166000908152600360205260409020805460ff19166001179055565b005b6102836101f6366004611a2c565b6001602081815260009384526040808520909152918352912080549181015460028201546003909201546001600160a01b038085169463ffffffff600160a01b808304821696600160c01b8404831696600160e01b909404909216946001600160401b03808516956001600160601b03600160401b8704811696859004169480821694900490911691168a565b604080516001600160a01b039b8c16815263ffffffff9a8b166020820152988a16908901529790951660608701526001600160401b0393841660808701526001600160601b0392831660a0870152911660c0850152851660e0840152166101008201529116610120820152610140016101ab565b6101e6610305366004611a0a565b6001600160a01b03166000908152600360205260409020805460ff19169055565b61032e6105b5565b6040516101ab9190611a56565b6101e6610349366004611ab8565b610637565b61047961035c366004611a2c565b6040805161014081018252600080825260208201819052918101829052606081018290526080810182905260a0810182905260c0810182905260e081018290526101008101829052610120810191909152506001600160a01b0380831660009081526001602081815260408084208685528252928390208351610140810185528154808716825263ffffffff600160a01b808304821695840195909552600160c01b8204811696830196909652600160e01b90049094166060850152918201546001600160401b0380821660808601526001600160601b03600160401b8304811660a08701529183900490911660c0850152600283015480861660e086015291909104166101008301526003015490911661012082015292915050565b6040516101ab9190611b0b565b6101e6610494366004611c00565b610938565b6101e66104a7366004611a2c565b610be8565b6104cf6104ba366004611a0a565b60036020526000908152604090205460ff1681565b60405190151581526020016101ab565b6101e66104ed366004611c67565b61101d565b6105426105003660046119bd565b6002602090815260009485526040808620825293855283852081529184528284209091528252902054606081901b90600160a01b90046001600160601b031682565b604080516001600160601b031990931683526001600160601b039091166020830152016101ab565b61057d610578366004611ce6565b61108c565b604080516001600160a01b0390941684526020840192909252908201526060016101ab565b6101e66105b0366004611cff565b6110c9565b60606000805480602002602001604051908101604052809291908181526020016000905b8282101561062e576000848152602090819020604080516060810182526003860290920180546001600160a01b03168352600180820154848601526002909101549183019190915290835290920191016105d9565b50505050905090565b6001600160a01b038416600090815260016020908152604080832086845290915290208054600160a01b900463ffffffff1661068e5760405162461bcd60e51b815260040161068590611d33565b60405180910390fd5b8054600160a01b900463ffffffff164210156106f75760405162461bcd60e51b815260206004820152602260248201527f42696464696e6720706572696f6420686173206e6f7420737461727465642079604482015261195d60f21b6064820152608401610685565b8054600160c01b900463ffffffff164211156107555760405162461bcd60e51b815260206004820152601860248201527f42696464696e6720706572696f642068617320656e64656400000000000000006044820152606401610685565b6001600160601b031983166107ac5760405162461bcd60e51b815260206004820152601a60248201527f436f6d6d69746d656e742063616e6e6f7420626520656d7074790000000000006044820152606401610685565b600082116107fc5760405162461bcd60e51b815260206004820152601760248201527f496e73756666696369656e7420636f6c6c61746572616c0000000000000000006044820152606401610685565b60038101546040516323b872dd60e01b81526001600160a01b03909116906323b872dd9061083290339030908790600401611d77565b6020604051808303816000875af1158015610851573d6000803e3d6000fd5b505050506040513d601f19601f820116820180604052508101906108759190611d9b565b506040805180820182526001600160601b0319851681526001600160601b0384811660208084019182526001600160a01b038a16600090815260028083528682208b83528352868220908801546001600160401b03600160a01b9182900481168452918452878320338452909352958120945192519093160260609190911c17909155600183018054909216919061090c83611dd3565b91906101000a8154816001600160401b0302191690836001600160401b03160217905550505050505050565b6001600160a01b038316600081815260016020908152604080832086845282528083209383526002825280832086845282528083206001600160401b0386168452825280832033845290915290208154600160e01b900463ffffffff1642116109e35760405162461bcd60e51b815260206004820152601b60248201527f52657665616c20706572696f6420686173206e6f7420656e64656400000000006044820152606401610685565b805460601b6001600160601b031916610a0e5760405162461bcd60e51b815260040161068590611df9565b8054600160a01b90046001600160601b0316610a785760405162461bcd60e51b815260206004820152602360248201527f4e6f20636f6c6c61746572616c206e6565647320746f2062652077697468647260448201526230bbb760e91b6064820152608401610685565b60028201546001600160a01b03163303610aed5760405162461bcd60e51b815260206004820152603060248201527f43616e6e6f7420776974686472617720636f6c6c61746572616c20746f20746860448201526f32903bb4b73734b733903134b23232b960811b6064820152608401610685565b6003820154815460405163a9059cbb60e01b81526001600160a01b039092169163a9059cbb91610b32913391600160a01b90046001600160601b031690600401611e3c565b6020604051808303816000875af1158015610b51573d6000803e3d6000fd5b505050506040513d601f19601f82011682018060405250810190610b759190611d9b565b5050604080518082018252600080825260208083018281526001600160a01b039098168252600281528382209682529586528281206001600160401b039095168152938552818420338552909452909120915192516001600160601b0316600160a01b0260609390931c92909217905550565b6001600160a01b038216600090815260016020908152604080832084845290915290208054600160a01b900463ffffffff16610c365760405162461bcd60e51b815260040161068590611d33565b8054600160e01b900463ffffffff164211610c935760405162461bcd60e51b815260206004820152601c60248201527f52657665616c696e6720706572696f64206973206e6f74206f766572000000006044820152606401610685565b60018101546001600160401b031615610cee5760405162461bcd60e51b815260206004820152601960248201527f4e6f7420616c6c2062696473206172652072657665616c6564000000000000006044820152606401610685565b805460028201546001600160a01b03908116911614610f615780546002820154604080516001600160a01b0387811682526020820187905293841681830152929091166060830152517f70f0c7140cab08317cd49cc744829435b3ed220274c9787906c318153ab908b19181900360800190a16002810154604051632142170760e11b81526001600160a01b03808616926342842e0e92610d9792309216908790600401611d77565b600060405180830381600087803b158015610db157600080fd5b505af1158015610dc5573d6000803e3d6000fd5b50505060038201548254600184015460405163a9059cbb60e01b81526001600160a01b03938416945063a9059cbb93610e149316916001600160601b03600160a01b9091041690600401611e3c565b6020604051808303816000875af1158015610e33573d6000803e3d6000fd5b505050506040513d601f19601f82011682018060405250810190610e579190611d9b565b506001600160a01b038381166000908152600260208181526040808420878552825280842092860154600160a01b8082046001600160401b0316865293835281852095168452939052918120600184015481549193610eca92918190046001600160601b03908116929190910416611e5e565b90506001600160601b03811615610f5a576003830154600284015460405163a9059cbb60e01b81526001600160a01b039283169263a9059cbb92610f15929116908590600401611e3c565b6020604051808303816000875af1158015610f34573d6000803e3d6000fd5b505050506040513d601f19601f82011682018060405250810190610f589190611d9b565b505b5050505050565b8054604080516001600160a01b0386811682526020820186905230828401529092166060830152517f70f0c7140cab08317cd49cc744829435b3ed220274c9787906c318153ab908b19181900360800190a18054604051632142170760e11b81526001600160a01b03808616926342842e0e92610fe692309216908790600401611d77565b600060405180830381600087803b15801561100057600080fd5b505af1158015611014573d6000803e3d6000fd5b50505050505050565b3360009081526003602052604090205460ff1680156110735760405162461bcd60e51b8152602060048201526012602482015271213630b1b5b634b9ba32b21039b2b63632b960711b6044820152606401610685565b6110828888888888888861148e565b5050505050505050565b6000818154811061109c57600080fd5b60009182526020909120600390910201805460018201546002909201546001600160a01b03909116925083565b6001600160a01b038416600090815260016020908152604080832086845290915290208054600160a01b900463ffffffff166111175760405162461bcd60e51b815260040161068590611d33565b8054600160c01b900463ffffffff164210156111755760405162461bcd60e51b815260206004820181905260248201527f42696464696e6720706572696f6420686173206e6f7420656e646564207965746044820152606401610685565b8054600160e01b900463ffffffff1642106111d25760405162461bcd60e51b815260206004820152601760248201527f52657665616c20706572696f642068617320656e6465640000000000000000006044820152606401610685565b6001600160a01b03851660009081526002602081815260408084208885528252808420928501546001600160401b03600160a01b90910416845291815281832033845290529020805460601b6001600160601b0319166112445760405162461bcd60e51b815260040161068590611df9565b8054600283015460408051602081018790526001600160601b038816918101919091526001600160a01b03891660608083019190915260808201899052600160a01b9092046001600160401b031660a082015291901b6001600160601b0319169060c001604051602081830303815290604052805190602001206001600160601b0319161461130a5760405162461bcd60e51b8152602060048201526012602482015271125b9d985b1a5908189a59081c995d99585b60721b6044820152606401610685565b80546001600160601b03600160a01b909104811690851611156113675760405162461bcd60e51b8152602060048201526015602482015274139bdd08195b9bdd59da0818dbdb1b185d195c985b605a1b6044820152606401610685565b600182810180546000906113859084906001600160401b0316611e85565b92506101000a8154816001600160401b0302191690836001600160401b031602179055508160010160089054906101000a90046001600160601b03166001600160601b0316846001600160601b03161115611444576001820180546001600160401b038116600160401b918290046001600160601b03908116600160a01b0273ffffffffffffffffffffffff000000000000000019169190911790871691909102179055600282018054336001600160a01b0319909116179055610f58565b60018201546001600160601b03600160a01b90910481169085161115610f58576001820180546001600160a01b0316600160a01b6001600160601b03871602179055505050505050565b428463ffffffff16116114e35760405162461bcd60e51b815260206004820181905260248201527f41756374696f6e206d75737420737461727420696e20746865206675747572656044820152606401610685565b6001600160a01b0387166000908152600160209081526040808320898452909152902054600160a01b900463ffffffff161561156f5760405162461bcd60e51b815260206004820152602560248201527f41756374696f6e20616c72656164792065786973747320666f72207468697320604482015264185cdcd95d60da1b6064820152608401610685565b60008363ffffffff16116115cf5760405162461bcd60e51b815260206004820152602160248201527f42696420706572696f64206d7573742062652067726561746572207468616e206044820152600360fc1b6064820152608401610685565b60008263ffffffff16116116315760405162461bcd60e51b8152602060048201526024808201527f52657665616c20706572696f64206d75737420626520677265617465722074686044820152630616e20360e41b6064820152608401610685565b6040516323b872dd60e01b815287906001600160a01b038216906323b872dd9061166390339030908c90600401611d77565b600060405180830381600087803b15801561167d57600080fd5b505af1158015611691573d6000803e3d6000fd5b50505050600084866116a39190611ea5565b905060006116b18583611ea5565b90506000600160008c6001600160a01b03166001600160a01b0316815260200190815260200160002060008b81526020019081526020016000209050338160000160006101000a8154816001600160a01b0302191690836001600160a01b03160217905550878160000160146101000a81548163ffffffff021916908363ffffffff160217905550828160000160186101000a81548163ffffffff021916908363ffffffff1602179055508181600001601c6101000a81548163ffffffff021916908363ffffffff16021790555060008160010160006101000a8154816001600160401b0302191690836001600160401b03160217905550848160010160086101000a8154816001600160601b0302191690836001600160601b03160217905550848160010160146101000a8154816001600160601b0302191690836001600160601b03160217905550338160020160006101000a8154816001600160a01b0302191690836001600160a01b03160217905550600160008c6001600160a01b03166001600160a01b0316815260200190815260200160002060008b815260200190815260200160002060020160149054906101000a90046001600160401b0316600161187d9190611ec2565b6002820180546001600160401b0392909216600160a01b0267ffffffffffffffff60a01b19909216919091179055600390810180546001600160a01b039a8b166001600160a01b031991821617909155604080516060810182529c8b168d5260208d019b8c5242908d01908152600080546001810182559080529c519c9092027f290decd9548b62a8d60345a988386fc84ba6bc95484008f6362f93160ef3e563810180549d909b169c9091169b909b17909855505095517f290decd9548b62a8d60345a988386fc84ba6bc95484008f6362f93160ef3e564880155505091517f290decd9548b62a8d60345a988386fc84ba6bc95484008f6362f93160ef3e56590940193909355505050565b80356001600160a01b03811681146119a157600080fd5b919050565b80356001600160401b03811681146119a157600080fd5b600080600080608085870312156119d357600080fd5b6119dc8561198a565b9350602085013592506119f1604086016119a6565b91506119ff6060860161198a565b905092959194509250565b600060208284031215611a1c57600080fd5b611a258261198a565b9392505050565b60008060408385031215611a3f57600080fd5b611a488361198a565b946020939093013593505050565b602080825282518282018190526000919060409081850190868401855b82811015611aab57815180516001600160a01b0316855286810151878601528501518585015260609093019290850190600101611a73565b5091979650505050505050565b60008060008060808587031215611ace57600080fd5b611ad78561198a565b93506020850135925060408501356001600160601b031981168114611afb57600080fd5b9396929550929360600135925050565b81516001600160a01b0316815261014081016020830151611b34602084018263ffffffff169052565b506040830151611b4c604084018263ffffffff169052565b506060830151611b64606084018263ffffffff169052565b506080830151611b7f60808401826001600160401b03169052565b5060a0830151611b9a60a08401826001600160601b03169052565b5060c0830151611bb560c08401826001600160601b03169052565b5060e0830151611bd060e08401826001600160a01b03169052565b50610100838101516001600160401b031690830152610120928301516001600160a01b0316929091019190915290565b600080600060608486031215611c1557600080fd5b611c1e8461198a565b925060208401359150611c33604085016119a6565b90509250925092565b803563ffffffff811681146119a157600080fd5b80356001600160601b03811681146119a157600080fd5b600080600080600080600060e0888a031215611c8257600080fd5b611c8b8861198a565b965060208801359550611ca06040890161198a565b9450611cae60608901611c3c565b9350611cbc60808901611c3c565b9250611cca60a08901611c3c565b9150611cd860c08901611c50565b905092959891949750929550565b600060208284031215611cf857600080fd5b5035919050565b60008060008060808587031215611d1557600080fd5b611d1e8561198a565b935060208501359250611afb60408601611c50565b60208082526024908201527f41756374696f6e20646f6573206e6f7420657869737420666f722074686973206040820152636974656d60e01b606082015260800190565b6001600160a01b039384168152919092166020820152604081019190915260600190565b600060208284031215611dad57600080fd5b81518015158114611a2557600080fd5b634e487b7160e01b600052601160045260246000fd5b60006001600160401b03808316818103611def57611def611dbd565b6001019392505050565b60208082526023908201527f4e6f20636f6d6d69746d656e7420666f756e6420666f722074686973206269646040820152623232b960e91b606082015260800190565b6001600160a01b039290921682526001600160601b0316602082015260400190565b6001600160601b03828116828216039080821115611e7e57611e7e611dbd565b5092915050565b6001600160401b03828116828216039080821115611e7e57611e7e611dbd565b63ffffffff818116838216019080821115611e7e57611e7e611dbd565b6001600160401b03818116838216019080821115611e7e57611e7e611dbd56fea2646970667358221220ad5d92536b258664340f582791cb8b9381c434f49c0e14d3b1ea0cb5f4cbce5a64736f6c63430008140033",
    "linkReferences": {}
  },
  "methodIdentifiers": {
    "addToBlackList(address)": "417c73a7",
    "addressExists(address)": "a5025222",
    "auctionArray(uint256)": "f16332db",
    "auctions(address,uint256)": "44f91c1e",
    "bids(address,uint256,uint64,address)": "ea25c93f",
    "commitBid(address,uint256,bytes20,uint256)": "6f9919b5",
    "createAuction(address,uint256,address,uint32,uint32,uint32,uint96)": "afa16717",
    "endAuction(address,uint256)": "88cedbc4",
    "getAuction(address,uint256)": "762a66a2",
    "getAuctionArray()": "4b288402",
    "getBid(address,uint256,uint64,address)": "110831ac",
    "removeFromBlackList(address)": "4a49ac4c",
    "revealBid(address,uint256,uint96,bytes32)": "f43bad31",
    "withdrawCollateral(address,uint256,uint64)": "7cae5774"
  },
  "id": 48
}