{
  "abi": [
    {
      "inputs": [
        {
          "internalType": "string",
          "name": "name",
          "type": "string"
        },
        {
          "internalType": "string",
          "name": "symbol",
          "type": "string"
        }
      ],
      "stateMutability": "nonpayable",
      "type": "constructor"
    },
    {
      "inputs": [
        {
          "internalType": "address",
          "name": "sender",
          "type": "address"
        },
        {
          "internalType": "uint256",
          "name": "tokenId",
          "type": "uint256"
        },
        {
          "internalType": "address",
          "name": "owner",
          "type": "address"
        }
      ],
      "name": "ERC721IncorrectOwner",
      "type": "error"
    },
    {
      "inputs": [
        {
          "internalType": "address",
          "name": "operator",
          "type": "address"
        },
        {
          "internalType": "uint256",
          "name": "tokenId",
          "type": "uint256"
        }
      ],
      "name": "ERC721InsufficientApproval",
      "type": "error"
    },
    {
      "inputs": [
        {
          "internalType": "address",
          "name": "approver",
          "type": "address"
        }
      ],
      "name": "ERC721InvalidApprover",
      "type": "error"
    },
    {
      "inputs": [
        {
          "internalType": "address",
          "name": "operator",
          "type": "address"
        }
      ],
      "name": "ERC721InvalidOperator",
      "type": "error"
    },
    {
      "inputs": [
        {
          "internalType": "address",
          "name": "owner",
          "type": "address"
        }
      ],
      "name": "ERC721InvalidOwner",
      "type": "error"
    },
    {
      "inputs": [
        {
          "internalType": "address",
          "name": "receiver",
          "type": "address"
        }
      ],
      "name": "ERC721InvalidReceiver",
      "type": "error"
    },
    {
      "inputs": [
        {
          "internalType": "address",
          "name": "sender",
          "type": "address"
        }
      ],
      "name": "ERC721InvalidSender",
      "type": "error"
    },
    {
      "inputs": [
        {
          "internalType": "uint256",
          "name": "tokenId",
          "type": "uint256"
        }
      ],
      "name": "ERC721NonexistentToken",
      "type": "error"
    },
    {
      "anonymous": false,
      "inputs": [
        {
          "indexed": true,
          "internalType": "address",
          "name": "owner",
          "type": "address"
        },
        {
          "indexed": true,
          "internalType": "address",
          "name": "approved",
          "type": "address"
        },
        {
          "indexed": true,
          "internalType": "uint256",
          "name": "tokenId",
          "type": "uint256"
        }
      ],
      "name": "Approval",
      "type": "event"
    },
    {
      "anonymous": false,
      "inputs": [
        {
          "indexed": true,
          "internalType": "address",
          "name": "owner",
          "type": "address"
        },
        {
          "indexed": true,
          "internalType": "address",
          "name": "operator",
          "type": "address"
        },
        {
          "indexed": false,
          "internalType": "bool",
          "name": "approved",
          "type": "bool"
        }
      ],
      "name": "ApprovalForAll",
      "type": "event"
    },
    {
      "anonymous": false,
      "inputs": [
        {
          "indexed": true,
          "internalType": "address",
          "name": "from",
          "type": "address"
        },
        {
          "indexed": true,
          "internalType": "address",
          "name": "to",
          "type": "address"
        },
        {
          "indexed": true,
          "internalType": "uint256",
          "name": "tokenId",
          "type": "uint256"
        }
      ],
      "name": "Transfer",
      "type": "event"
    },
    {
      "inputs": [
        {
          "internalType": "address",
          "name": "to",
          "type": "address"
        },
        {
          "internalType": "uint256",
          "name": "tokenId",
          "type": "uint256"
        }
      ],
      "name": "approve",
      "outputs": [],
      "stateMutability": "nonpayable",
      "type": "function"
    },
    {
      "inputs": [
        {
          "internalType": "address",
          "name": "owner",
          "type": "address"
        }
      ],
      "name": "balanceOf",
      "outputs": [
        {
          "internalType": "uint256",
          "name": "",
          "type": "uint256"
        }
      ],
      "stateMutability": "view",
      "type": "function"
    },
    {
      "inputs": [
        {
          "internalType": "uint256",
          "name": "tokenId",
          "type": "uint256"
        }
      ],
      "name": "getApproved",
      "outputs": [
        {
          "internalType": "address",
          "name": "",
          "type": "address"
        }
      ],
      "stateMutability": "view",
      "type": "function"
    },
    {
      "inputs": [
        {
          "internalType": "address",
          "name": "owner",
          "type": "address"
        },
        {
          "internalType": "address",
          "name": "operator",
          "type": "address"
        }
      ],
      "name": "isApprovedForAll",
      "outputs": [
        {
          "internalType": "bool",
          "name": "",
          "type": "bool"
        }
      ],
      "stateMutability": "view",
      "type": "function"
    },
    {
      "inputs": [
        {
          "internalType": "address",
          "name": "to",
          "type": "address"
        }
      ],
      "name": "mint",
      "outputs": [],
      "stateMutability": "nonpayable",
      "type": "function"
    },
    {
      "inputs": [],
      "name": "name",
      "outputs": [
        {
          "internalType": "string",
          "name": "",
          "type": "string"
        }
      ],
      "stateMutability": "view",
      "type": "function"
    },
    {
      "inputs": [
        {
          "internalType": "uint256",
          "name": "tokenId",
          "type": "uint256"
        }
      ],
      "name": "ownerOf",
      "outputs": [
        {
          "internalType": "address",
          "name": "",
          "type": "address"
        }
      ],
      "stateMutability": "view",
      "type": "function"
    },
    {
      "inputs": [
        {
          "internalType": "address",
          "name": "from",
          "type": "address"
        },
        {
          "internalType": "address",
          "name": "to",
          "type": "address"
        },
        {
          "internalType": "uint256",
          "name": "tokenId",
          "type": "uint256"
        }
      ],
      "name": "safeTransferFrom",
      "outputs": [],
      "stateMutability": "nonpayable",
      "type": "function"
    },
    {
      "inputs": [
        {
          "internalType": "address",
          "name": "from",
          "type": "address"
        },
        {
          "internalType": "address",
          "name": "to",
          "type": "address"
        },
        {
          "internalType": "uint256",
          "name": "tokenId",
          "type": "uint256"
        },
        {
          "internalType": "bytes",
          "name": "data",
          "type": "bytes"
        }
      ],
      "name": "safeTransferFrom",
      "outputs": [],
      "stateMutability": "nonpayable",
      "type": "function"
    },
    {
      "inputs": [
        {
          "internalType": "address",
          "name": "operator",
          "type": "address"
        },
        {
          "internalType": "bool",
          "name": "approved",
          "type": "bool"
        }
      ],
      "name": "setApprovalForAll",
      "outputs": [],
      "stateMutability": "nonpayable",
      "type": "function"
    },
    {
      "inputs": [
        {
          "internalType": "bytes4",
          "name": "interfaceId",
          "type": "bytes4"
        }
      ],
      "name": "supportsInterface",
      "outputs": [
        {
          "internalType": "bool",
          "name": "",
          "type": "bool"
        }
      ],
      "stateMutability": "view",
      "type": "function"
    },
    {
      "inputs": [],
      "name": "symbol",
      "outputs": [
        {
          "internalType": "string",
          "name": "",
          "type": "string"
        }
      ],
      "stateMutability": "view",
      "type": "function"
    },
    {
      "inputs": [
        {
          "internalType": "uint256",
          "name": "tokenId",
          "type": "uint256"
        }
      ],
      "name": "tokenURI",
      "outputs": [
        {
          "internalType": "string",
          "name": "",
          "type": "string"
        }
      ],
      "stateMutability": "view",
      "type": "function"
    },
    {
      "inputs": [
        {
          "internalType": "address",
          "name": "owner",
          "type": "address"
        }
      ],
      "name": "tokensOfOwner",
      "outputs": [
        {
          "internalType": "uint256[]",
          "name": "",
          "type": "uint256[]"
        }
      ],
      "stateMutability": "view",
      "type": "function"
    },
    {
      "inputs": [
        {
          "internalType": "address",
          "name": "from",
          "type": "address"
        },
        {
          "internalType": "address",
          "name": "to",
          "type": "address"
        },
        {
          "internalType": "uint256",
          "name": "tokenId",
          "type": "uint256"
        }
      ],
      "name": "transferFrom",
      "outputs": [],
      "stateMutability": "nonpayable",
      "type": "function"
    }
  ],
  "bytecode": {
    "object": "0x60806040523480156200001157600080fd5b50604051620013eb380380620013eb833981016040819052620000349162000123565b818160006200004483826200021c565b5060016200005382826200021c565b5050505050620002e8565b634e487b7160e01b600052604160045260246000fd5b600082601f8301126200008657600080fd5b81516001600160401b0380821115620000a357620000a36200005e565b604051601f8301601f19908116603f01168101908282118183101715620000ce57620000ce6200005e565b81604052838152602092508683858801011115620000eb57600080fd5b600091505b838210156200010f5785820183015181830184015290820190620000f0565b600093810190920192909252949350505050565b600080604083850312156200013757600080fd5b82516001600160401b03808211156200014f57600080fd5b6200015d8683870162000074565b935060208501519150808211156200017457600080fd5b50620001838582860162000074565b9150509250929050565b600181811c90821680620001a257607f821691505b602082108103620001c357634e487b7160e01b600052602260045260246000fd5b50919050565b601f8211156200021757600081815260208120601f850160051c81016020861015620001f25750805b601f850160051c820191505b818110156200021357828155600101620001fe565b5050505b505050565b81516001600160401b038111156200023857620002386200005e565b62000250816200024984546200018d565b84620001c9565b602080601f8311600181146200028857600084156200026f5750858301515b600019600386901b1c1916600185901b17855562000213565b600085815260208120601f198616915b82811015620002b95788860151825594840194600190910190840162000298565b5085821015620002d85787850151600019600388901b60f8161c191681555b5050505050600190811b01905550565b6110f380620002f86000396000f3fe608060405234801561001057600080fd5b50600436106100f55760003560e01c80636a62784211610097578063a22cb46511610066578063a22cb4651461020c578063b88d4fde1461021f578063c87b56dd14610232578063e985e9c51461024557600080fd5b80636a627842146101b057806370a08231146101c35780638462151c146101e457806395d89b411461020457600080fd5b8063095ea7b3116100d3578063095ea7b31461016257806323b872dd1461017757806342842e0e1461018a5780636352211e1461019d57600080fd5b806301ffc9a7146100fa57806306fdde0314610122578063081812fc14610137575b600080fd5b61010d610108366004610cf8565b610258565b60405190151581526020015b60405180910390f35b61012a6102aa565b6040516101199190610d65565b61014a610145366004610d78565b61033c565b6040516001600160a01b039091168152602001610119565b610175610170366004610dad565b610365565b005b610175610185366004610dd7565b610374565b610175610198366004610dd7565b610404565b61014a6101ab366004610d78565b610424565b6101756101be366004610e13565b61042f565b6101d66101d1366004610e13565b61047f565b604051908152602001610119565b6101f76101f2366004610e13565b6104c7565b6040516101199190610e2e565b61012a610533565b61017561021a366004610e72565b610542565b61017561022d366004610ec4565b61054d565b61012a610240366004610d78565b610564565b61010d610253366004610fa0565b6105d9565b60006001600160e01b031982166380ac58cd60e01b148061028957506001600160e01b03198216635b5e139f60e01b145b806102a457506301ffc9a760e01b6001600160e01b03198316145b92915050565b6060600080546102b990610fd3565b80601f01602080910402602001604051908101604052809291908181526020018280546102e590610fd3565b80156103325780601f1061030757610100808354040283529160200191610332565b820191906000526020600020905b81548152906001019060200180831161031557829003601f168201915b5050505050905090565b600061034782610607565b506000828152600460205260409020546001600160a01b03166102a4565b610370828233610640565b5050565b6001600160a01b0382166103a357604051633250574960e11b8152600060048201526024015b60405180910390fd5b60006103b083833361064d565b9050836001600160a01b0316816001600160a01b0316146103fe576040516364283d7b60e01b81526001600160a01b038086166004830152602482018490528216604482015260640161039a565b50505050565b61041f8383836040518060200160405280600081525061054d565b505050565b60006102a482610607565b60065461043c8282610746565b6001600160a01b0382166000908152600760209081526040822080546001810182559083529082200182905560068054916104768361100d565b91905055505050565b60006001600160a01b0382166104ab576040516322718ad960e21b81526000600482015260240161039a565b506001600160a01b031660009081526003602052604090205490565b6001600160a01b03811660009081526007602090815260409182902080548351818402810184019094528084526060939283018282801561052757602002820191906000526020600020905b815481526020019060010190808311610513575b50505050509050919050565b6060600180546102b990610fd3565b610370338383610760565b610558848484610374565b6103fe848484846107ff565b606061056f82610607565b50600061058760408051602081019091526000815290565b905060008151116105a757604051806020016040528060008152506105d2565b806105b184610928565b6040516020016105c2929190611034565b6040516020818303038152906040525b9392505050565b6001600160a01b03918216600090815260056020908152604080832093909416825291909152205460ff1690565b6000818152600260205260408120546001600160a01b0316806102a457604051637e27328960e01b81526004810184905260240161039a565b61041f83838360016109bb565b6000828152600260205260408120546001600160a01b039081169083161561067a5761067a818486610ac1565b6001600160a01b038116156106b8576106976000856000806109bb565b6001600160a01b038116600090815260036020526040902080546000190190555b6001600160a01b038516156106e7576001600160a01b0385166000908152600360205260409020805460010190555b60008481526002602052604080822080546001600160a01b0319166001600160a01b0389811691821790925591518793918516917fddf252ad1be2c89b69c2b068fc378daa952ba7f163c4a11628f55a4df523b3ef91a4949350505050565b610370828260405180602001604052806000815250610b25565b6001600160a01b03821661079257604051630b61174360e31b81526001600160a01b038316600482015260240161039a565b6001600160a01b03838116600081815260056020908152604080832094871680845294825291829020805460ff191686151590811790915591519182527f17307eab39ab6107e8899845ad3d59bd9653f200f220920489ca2b5937696c31910160405180910390a3505050565b6001600160a01b0383163b156103fe57604051630a85bd0160e11b81526001600160a01b0384169063150b7a0290610841903390889087908790600401611063565b6020604051808303816000875af192505050801561087c575060408051601f3d908101601f19168201909252610879918101906110a0565b60015b6108e5573d8080156108aa576040519150601f19603f3d011682016040523d82523d6000602084013e6108af565b606091505b5080516000036108dd57604051633250574960e11b81526001600160a01b038516600482015260240161039a565b805181602001fd5b6001600160e01b03198116630a85bd0160e11b1461092157604051633250574960e11b81526001600160a01b038516600482015260240161039a565b5050505050565b6060600061093583610b3c565b600101905060008167ffffffffffffffff81111561095557610955610eae565b6040519080825280601f01601f19166020018201604052801561097f576020820181803683370190505b5090508181016020015b600019016f181899199a1a9b1b9c1cb0b131b232b360811b600a86061a8153600a850494508461098957509392505050565b80806109cf57506001600160a01b03821615155b15610a915760006109df84610607565b90506001600160a01b03831615801590610a0b5750826001600160a01b0316816001600160a01b031614155b8015610a1e5750610a1c81846105d9565b155b15610a475760405163a9fbf51f60e01b81526001600160a01b038416600482015260240161039a565b8115610a8f5783856001600160a01b0316826001600160a01b03167f8c5be1e5ebec7d5bd14f71427d1e84f3dd0314c0f7b2291e5b200ac8c7c3b92560405160405180910390a45b505b5050600090815260046020526040902080546001600160a01b0319166001600160a01b0392909216919091179055565b610acc838383610c14565b61041f576001600160a01b038316610afa57604051637e27328960e01b81526004810182905260240161039a565b60405163177e802f60e01b81526001600160a01b03831660048201526024810182905260440161039a565b610b2f8383610c7a565b61041f60008484846107ff565b60008072184f03e93ff9f4daa797ed6e38ed64bf6a1f0160401b8310610b7b5772184f03e93ff9f4daa797ed6e38ed64bf6a1f0160401b830492506040015b6d04ee2d6d415b85acef81000000008310610ba7576d04ee2d6d415b85acef8100000000830492506020015b662386f26fc100008310610bc557662386f26fc10000830492506010015b6305f5e1008310610bdd576305f5e100830492506008015b6127108310610bf157612710830492506004015b60648310610c03576064830492506002015b600a83106102a45760010192915050565b60006001600160a01b03831615801590610c725750826001600160a01b0316846001600160a01b03161480610c4e5750610c4e84846105d9565b80610c7257506000828152600460205260409020546001600160a01b038481169116145b949350505050565b6001600160a01b038216610ca457604051633250574960e11b81526000600482015260240161039a565b6000610cb28383600061064d565b90506001600160a01b0381161561041f576040516339e3563760e11b81526000600482015260240161039a565b6001600160e01b031981168114610cf557600080fd5b50565b600060208284031215610d0a57600080fd5b81356105d281610cdf565b60005b83811015610d30578181015183820152602001610d18565b50506000910152565b60008151808452610d51816020860160208601610d15565b601f01601f19169290920160200192915050565b6020815260006105d26020830184610d39565b600060208284031215610d8a57600080fd5b5035919050565b80356001600160a01b0381168114610da857600080fd5b919050565b60008060408385031215610dc057600080fd5b610dc983610d91565b946020939093013593505050565b600080600060608486031215610dec57600080fd5b610df584610d91565b9250610e0360208501610d91565b9150604084013590509250925092565b600060208284031215610e2557600080fd5b6105d282610d91565b6020808252825182820181905260009190848201906040850190845b81811015610e6657835183529284019291840191600101610e4a565b50909695505050505050565b60008060408385031215610e8557600080fd5b610e8e83610d91565b915060208301358015158114610ea357600080fd5b809150509250929050565b634e487b7160e01b600052604160045260246000fd5b60008060008060808587031215610eda57600080fd5b610ee385610d91565b9350610ef160208601610d91565b925060408501359150606085013567ffffffffffffffff80821115610f1557600080fd5b818701915087601f830112610f2957600080fd5b813581811115610f3b57610f3b610eae565b604051601f8201601f19908116603f01168101908382118183101715610f6357610f63610eae565b816040528281528a6020848701011115610f7c57600080fd5b82602086016020830137600060208483010152809550505050505092959194509250565b60008060408385031215610fb357600080fd5b610fbc83610d91565b9150610fca60208401610d91565b90509250929050565b600181811c90821680610fe757607f821691505b60208210810361100757634e487b7160e01b600052602260045260246000fd5b50919050565b60006001820161102d57634e487b7160e01b600052601160045260246000fd5b5060010190565b60008351611046818460208801610d15565b83519083019061105a818360208801610d15565b01949350505050565b6001600160a01b038581168252841660208201526040810183905260806060820181905260009061109690830184610d39565b9695505050505050565b6000602082840312156110b257600080fd5b81516105d281610cdf56fea26469706673582212208b1dd703ea2dc693a3ad062c3e804d3977fd9876a8cf0295b3170152345df43264736f6c63430008140033",
    "linkReferences": {}
  },
  "methodIdentifiers": {
    "approve(address,uint256)": "095ea7b3",
    "balanceOf(address)": "70a08231",
    "getApproved(uint256)": "081812fc",
    "isApprovedForAll(address,address)": "e985e9c5",
    "mint(address)": "6a627842",
    "name()": "06fdde03",
    "ownerOf(uint256)": "6352211e",
    "safeTransferFrom(address,address,uint256)": "42842e0e",
    "safeTransferFrom(address,address,uint256,bytes)": "b88d4fde",
    "setApprovalForAll(address,bool)": "a22cb465",
    "supportsInterface(bytes4)": "01ffc9a7",
    "symbol()": "95d89b41",
    "tokenURI(uint256)": "c87b56dd",
    "tokensOfOwner(address)": "8462151c",
    "transferFrom(address,address,uint256)": "23b872dd"
  },
  "id": 37
}