{
  "abi": [
    {
      "inputs": [
        {
          "internalType": "address",
          "name": "initialOwner",
          "type": "address"
        }
      ],
      "stateMutability": "nonpayable",
      "type": "constructor"
    },
    {
      "inputs": [],
      "name": "adminAddress",
      "outputs": [
        {
          "internalType": "address",
          "name": "",
          "type": "address"
        }
      ],
      "stateMutability": "view",
      "type": "function"
    },
    {
      "inputs": [],
      "name": "auctionLogicV1",
      "outputs": [
        {
          "internalType": "contract TokenizedVickreyAuction",
          "name": "",
          "type": "address"
        }
      ],
      "stateMutability": "view",
      "type": "function"
    },
    {
      "inputs": [],
      "name": "auctionLogicV2",
      "outputs": [
        {
          "internalType": "contract TokenizedVickreyAuctionV2",
          "name": "",
          "type": "address"
        }
      ],
      "stateMutability": "view",
      "type": "function"
    },
    {
      "inputs": [],
      "name": "proxyAddress",
      "outputs": [
        {
          "internalType": "address",
          "name": "",
          "type": "address"
        }
      ],
      "stateMutability": "view",
      "type": "function"
    },
    {
      "inputs": [],
      "name": "proxyAdmin",
      "outputs": [
        {
          "internalType": "contract ProxyAdmin",
          "name": "",
          "type": "address"
        }
      ],
      "stateMutability": "view",
      "type": "function"
    },
    {
      "inputs": [],
      "name": "upgradeToV2",
      "outputs": [],
      "stateMutability": "nonpayable",
      "type": "function"
    }
  ],
  "bytecode": {
    "object": "0x608060405234801561001057600080fd5b506040516155d93803806155d983398101604081905261002f916101ee565b8060405161003c906101ba565b6001600160a01b039091168152602001604051809103906000f080158015610068573d6000803e3d6000fd5b50600480546001600160a01b03929092166001600160a01b03199283168117909155600080549092161790556040516100a0906101c7565b604051809103906000f0801580156100bc573d6000803e3d6000fd5b50600280546001600160a01b0319166001600160a01b03929092169190911790556040516100e9906101d4565b604051809103906000f080158015610105573d6000803e3d6000fd5b50600380546001600160a01b0319166001600160a01b0392831617905560025461012f9116610155565b600180546001600160a01b0319166001600160a01b039290921691909117905550610288565b6040805160008082526020820190925260008360008054906101000a90046001600160a01b031683604051610189906101e1565b6101959392919061021e565b604051809103906000f0801580156101b1573d6000803e3d6000fd5b50949350505050565b610524806104f383390190565b611dd980610a1783390190565b611f38806127f083390190565b610eb18061472883390190565b60006020828403121561020057600080fd5b81516001600160a01b038116811461021757600080fd5b9392505050565b600060018060a01b038086168352602081861681850152606060408501528451915081606085015260005b8281101561026557858101820151858201608001528101610249565b50506000608082850101526080601f19601f830116840101915050949350505050565b61025c806102976000396000f3fe608060405234801561001057600080fd5b50600436106100625760003560e01c806323f5c02d146100675780633e47158c1461009657806389ada6b5146100a9578063c3e6226f146100bc578063cc01053e146100cf578063fc6f9468146100d9575b600080fd5b60015461007a906001600160a01b031681565b6040516001600160a01b03909116815260200160405180910390f35b60045461007a906001600160a01b031681565b60035461007a906001600160a01b031681565b60025461007a906001600160a01b031681565b6100d76100ec565b005b60005461007a906001600160a01b031681565b6000546001600160a01b0316331461013a5760405162461bcd60e51b815260206004820152600d60248201526c2737ba103a34329030b236b4b760991b604482015260640160405180910390fd5b60015460045460035460408051600081526020810191829052639623609d60e01b9091526001600160a01b039384169392831692639623609d9261018792869290911690602481016101bc565b600060405180830381600087803b1580156101a157600080fd5b505af11580156101b5573d6000803e3d6000fd5b5050505050565b600060018060a01b038086168352602081861681850152606060408501528451915081606085015260005b82811015610203578581018201518582016080015281016101e7565b50506000608082850101526080601f19601f83011684010191505094935050505056fea26469706673582212200d1a436649fd47b421caf8c9dbde6d43246595ce8b9525f813f38377863c8ae164736f6c63430008140033608060405234801561001057600080fd5b5060405161052438038061052483398101604081905261002f916100be565b806001600160a01b03811661005e57604051631e4fbdf760e01b81526000600482015260240160405180910390fd5b6100678161006e565b50506100ee565b600080546001600160a01b038381166001600160a01b0319831681178455604051919092169283917f8be0079c531659141344cd1fd0a4f28419497f9722a3daafe3b4186f6b6457e09190a35050565b6000602082840312156100d057600080fd5b81516001600160a01b03811681146100e757600080fd5b9392505050565b610427806100fd6000396000f3fe60806040526004361061004a5760003560e01c8063715018a61461004f5780638da5cb5b146100665780639623609d14610093578063ad3cb1cc146100a6578063f2fde38b146100e4575b600080fd5b34801561005b57600080fd5b50610064610104565b005b34801561007257600080fd5b506000546040516001600160a01b0390911681526020015b60405180910390f35b6100646100a1366004610272565b610118565b3480156100b257600080fd5b506100d7604051806040016040528060058152602001640352e302e360dc1b81525081565b60405161008a919061038e565b3480156100f057600080fd5b506100646100ff3660046103a8565b610187565b61010c6101ca565b61011660006101f7565b565b6101206101ca565b60405163278f794360e11b81526001600160a01b03841690634f1ef28690349061015090869086906004016103c5565b6000604051808303818588803b15801561016957600080fd5b505af115801561017d573d6000803e3d6000fd5b5050505050505050565b61018f6101ca565b6001600160a01b0381166101be57604051631e4fbdf760e01b8152600060048201526024015b60405180910390fd5b6101c7816101f7565b50565b6000546001600160a01b031633146101165760405163118cdaa760e01b81523360048201526024016101b5565b600080546001600160a01b038381166001600160a01b0319831681178455604051919092169283917f8be0079c531659141344cd1fd0a4f28419497f9722a3daafe3b4186f6b6457e09190a35050565b6001600160a01b03811681146101c757600080fd5b634e487b7160e01b600052604160045260246000fd5b60008060006060848603121561028757600080fd5b833561029281610247565b925060208401356102a281610247565b9150604084013567ffffffffffffffff808211156102bf57600080fd5b818601915086601f8301126102d357600080fd5b8135818111156102e5576102e561025c565b604051601f8201601f19908116603f0116810190838211818310171561030d5761030d61025c565b8160405282815289602084870101111561032657600080fd5b8260208601602083013760006020848301015280955050505050509250925092565b6000815180845260005b8181101561036e57602081850181015186830182015201610352565b506000602082860101526020601f19601f83011685010191505092915050565b6020815260006103a16020830184610348565b9392505050565b6000602082840312156103ba57600080fd5b81356103a181610247565b6001600160a01b03831681526040602082018190526000906103e990830184610348565b94935050505056fea2646970667358221220c97cce94f49bf52d188ca4b4357e9e4b59eb63a45a10687679e5c3e3235e4a3164736f6c63430008140033608060405234801561001057600080fd5b50611db9806100206000396000f3fe608060405234801561001057600080fd5b50600436106100a95760003560e01c80637cae5774116100715780637cae5774146103e457806388cedbc4146103f7578063afa167171461040a578063ea25c93f1461041d578063f16332db14610495578063f43bad31146104cd57600080fd5b8063110831ac146100ae57806344f91c1e146101735780634b288402146102825780636f9919b514610297578063762a66a2146102ac575b600080fd5b6101406100bc366004611879565b604080518082018252600080825260209182018190526001600160a01b039687168152600282528281209581529481528185206001600160401b039490941685529283528084209190941683528152908290208251808401909352546001600160601b0319606082901b168352600160a01b90046001600160601b03169082015290565b6040805182516001600160601b03191681526020928301516001600160601b031692810192909252015b60405180910390f35b61020e6101813660046118c6565b6001602081815260009384526040808520909152918352912080549181015460028201546003909201546001600160a01b038085169463ffffffff600160a01b808304821696600160c01b8404831696600160e01b909404909216946001600160401b03808516956001600160601b03600160401b8704811696859004169480821694900490911691168a565b604080516001600160a01b039b8c16815263ffffffff9a8b166020820152988a16908901529790951660608701526001600160401b0393841660808701526001600160601b0392831660a0870152911660c0850152851660e08401521661010082015291166101208201526101400161016a565b61028a6104e0565b60405161016a91906118f0565b6102aa6102a5366004611952565b610562565b005b6103d76102ba3660046118c6565b6040805161014081018252600080825260208201819052918101829052606081018290526080810182905260a0810182905260c0810182905260e081018290526101008101829052610120810191909152506001600160a01b0380831660009081526001602081815260408084208685528252928390208351610140810185528154808716825263ffffffff600160a01b808304821695840195909552600160c01b8204811696830196909652600160e01b90049094166060850152918201546001600160401b0380821660808601526001600160601b03600160401b8304811660a08701529183900490911660c0850152600283015480861660e086015291909104166101008301526003015490911661012082015292915050565b60405161016a91906119a5565b6102aa6103f2366004611a9a565b610863565b6102aa6104053660046118c6565b610b13565b6102aa610418366004611b01565b610f48565b61046d61042b366004611879565b6002602090815260009485526040808620825293855283852081529184528284209091528252902054606081901b90600160a01b90046001600160601b031682565b604080516001600160601b031990931683526001600160601b0390911660208301520161016a565b6104a86104a3366004611b80565b611444565b604080516001600160a01b03909416845260208401929092529082015260600161016a565b6102aa6104db366004611b99565b611481565b60606000805480602002602001604051908101604052809291908181526020016000905b82821015610559576000848152602090819020604080516060810182526003860290920180546001600160a01b0316835260018082015484860152600290910154918301919091529083529092019101610504565b50505050905090565b6001600160a01b038416600090815260016020908152604080832086845290915290208054600160a01b900463ffffffff166105b95760405162461bcd60e51b81526004016105b090611bcd565b60405180910390fd5b8054600160a01b900463ffffffff164210156106225760405162461bcd60e51b815260206004820152602260248201527f42696464696e6720706572696f6420686173206e6f7420737461727465642079604482015261195d60f21b60648201526084016105b0565b8054600160c01b900463ffffffff164211156106805760405162461bcd60e51b815260206004820152601860248201527f42696464696e6720706572696f642068617320656e646564000000000000000060448201526064016105b0565b6001600160601b031983166106d75760405162461bcd60e51b815260206004820152601a60248201527f436f6d6d69746d656e742063616e6e6f7420626520656d70747900000000000060448201526064016105b0565b600082116107275760405162461bcd60e51b815260206004820152601760248201527f496e73756666696369656e7420636f6c6c61746572616c00000000000000000060448201526064016105b0565b60038101546040516323b872dd60e01b81526001600160a01b03909116906323b872dd9061075d90339030908790600401611c11565b6020604051808303816000875af115801561077c573d6000803e3d6000fd5b505050506040513d601f19601f820116820180604052508101906107a09190611c35565b506040805180820182526001600160601b0319851681526001600160601b0384811660208084019182526001600160a01b038a16600090815260028083528682208b83528352868220908801546001600160401b03600160a01b9182900481168452918452878320338452909352958120945192519093160260609190911c17909155600183018054909216919061083783611c74565b91906101000a8154816001600160401b0302191690836001600160401b03160217905550505050505050565b6001600160a01b038316600081815260016020908152604080832086845282528083209383526002825280832086845282528083206001600160401b0386168452825280832033845290915290208154600160e01b900463ffffffff16421161090e5760405162461bcd60e51b815260206004820152601b60248201527f52657665616c20706572696f6420686173206e6f7420656e646564000000000060448201526064016105b0565b805460601b6001600160601b0319166109395760405162461bcd60e51b81526004016105b090611c9a565b8054600160a01b90046001600160601b03166109a35760405162461bcd60e51b815260206004820152602360248201527f4e6f20636f6c6c61746572616c206e6565647320746f2062652077697468647260448201526230bbb760e91b60648201526084016105b0565b60028201546001600160a01b03163303610a185760405162461bcd60e51b815260206004820152603060248201527f43616e6e6f7420776974686472617720636f6c6c61746572616c20746f20746860448201526f32903bb4b73734b733903134b23232b960811b60648201526084016105b0565b6003820154815460405163a9059cbb60e01b81526001600160a01b039092169163a9059cbb91610a5d913391600160a01b90046001600160601b031690600401611cdd565b6020604051808303816000875af1158015610a7c573d6000803e3d6000fd5b505050506040513d601f19601f82011682018060405250810190610aa09190611c35565b5050604080518082018252600080825260208083018281526001600160a01b039098168252600281528382209682529586528281206001600160401b039095168152938552818420338552909452909120915192516001600160601b0316600160a01b0260609390931c92909217905550565b6001600160a01b038216600090815260016020908152604080832084845290915290208054600160a01b900463ffffffff16610b615760405162461bcd60e51b81526004016105b090611bcd565b8054600160e01b900463ffffffff164211610bbe5760405162461bcd60e51b815260206004820152601c60248201527f52657665616c696e6720706572696f64206973206e6f74206f7665720000000060448201526064016105b0565b60018101546001600160401b031615610c195760405162461bcd60e51b815260206004820152601960248201527f4e6f7420616c6c2062696473206172652072657665616c65640000000000000060448201526064016105b0565b805460028201546001600160a01b03908116911614610e8c5780546002820154604080516001600160a01b0387811682526020820187905293841681830152929091166060830152517f70f0c7140cab08317cd49cc744829435b3ed220274c9787906c318153ab908b19181900360800190a16002810154604051632142170760e11b81526001600160a01b03808616926342842e0e92610cc292309216908790600401611c11565b600060405180830381600087803b158015610cdc57600080fd5b505af1158015610cf0573d6000803e3d6000fd5b50505060038201548254600184015460405163a9059cbb60e01b81526001600160a01b03938416945063a9059cbb93610d3f9316916001600160601b03600160a01b9091041690600401611cdd565b6020604051808303816000875af1158015610d5e573d6000803e3d6000fd5b505050506040513d601f19601f82011682018060405250810190610d829190611c35565b506001600160a01b038381166000908152600260208181526040808420878552825280842092860154600160a01b8082046001600160401b0316865293835281852095168452939052918120600184015481549193610df592918190046001600160601b03908116929190910416611cff565b90506001600160601b03811615610e85576003830154600284015460405163a9059cbb60e01b81526001600160a01b039283169263a9059cbb92610e40929116908590600401611cdd565b6020604051808303816000875af1158015610e5f573d6000803e3d6000fd5b505050506040513d601f19601f82011682018060405250810190610e839190611c35565b505b5050505050565b8054604080516001600160a01b0386811682526020820186905230828401529092166060830152517f70f0c7140cab08317cd49cc744829435b3ed220274c9787906c318153ab908b19181900360800190a18054604051632142170760e11b81526001600160a01b03808616926342842e0e92610f1192309216908790600401611c11565b600060405180830381600087803b158015610f2b57600080fd5b505af1158015610f3f573d6000803e3d6000fd5b50505050505050565b428463ffffffff1611610f9d5760405162461bcd60e51b815260206004820181905260248201527f41756374696f6e206d75737420737461727420696e207468652066757475726560448201526064016105b0565b6001600160a01b0387166000908152600160209081526040808320898452909152902054600160a01b900463ffffffff16156110295760405162461bcd60e51b815260206004820152602560248201527f41756374696f6e20616c72656164792065786973747320666f72207468697320604482015264185cdcd95d60da1b60648201526084016105b0565b60008363ffffffff16116110895760405162461bcd60e51b815260206004820152602160248201527f42696420706572696f64206d7573742062652067726561746572207468616e206044820152600360fc1b60648201526084016105b0565b60008263ffffffff16116110eb5760405162461bcd60e51b8152602060048201526024808201527f52657665616c20706572696f64206d75737420626520677265617465722074686044820152630616e20360e41b60648201526084016105b0565b6040516323b872dd60e01b815287906001600160a01b038216906323b872dd9061111d90339030908c90600401611c11565b600060405180830381600087803b15801561113757600080fd5b505af115801561114b573d6000803e3d6000fd5b505050506000848661115d9190611d26565b9050600061116b8583611d26565b90506000600160008c6001600160a01b03166001600160a01b0316815260200190815260200160002060008b81526020019081526020016000209050338160000160006101000a8154816001600160a01b0302191690836001600160a01b03160217905550878160000160146101000a81548163ffffffff021916908363ffffffff160217905550828160000160186101000a81548163ffffffff021916908363ffffffff1602179055508181600001601c6101000a81548163ffffffff021916908363ffffffff16021790555060008160010160006101000a8154816001600160401b0302191690836001600160401b03160217905550848160010160086101000a8154816001600160601b0302191690836001600160601b03160217905550848160010160146101000a8154816001600160601b0302191690836001600160601b03160217905550338160020160006101000a8154816001600160a01b0302191690836001600160a01b03160217905550600160008c6001600160a01b03166001600160a01b0316815260200190815260200160002060008b815260200190815260200160002060020160149054906101000a90046001600160401b031660016113379190611d43565b6002820180546001600160401b0392909216600160a01b0267ffffffffffffffff60a01b19909216919091179055600390810180546001600160a01b039a8b166001600160a01b031991821617909155604080516060810182529c8b168d5260208d019b8c5242908d01908152600080546001810182559080529c519c9092027f290decd9548b62a8d60345a988386fc84ba6bc95484008f6362f93160ef3e563810180549d909b169c9091169b909b17909855505095517f290decd9548b62a8d60345a988386fc84ba6bc95484008f6362f93160ef3e564880155505091517f290decd9548b62a8d60345a988386fc84ba6bc95484008f6362f93160ef3e56590940193909355505050565b6000818154811061145457600080fd5b60009182526020909120600390910201805460018201546002909201546001600160a01b03909116925083565b6001600160a01b038416600090815260016020908152604080832086845290915290208054600160a01b900463ffffffff166114cf5760405162461bcd60e51b81526004016105b090611bcd565b8054600160c01b900463ffffffff1642101561152d5760405162461bcd60e51b815260206004820181905260248201527f42696464696e6720706572696f6420686173206e6f7420656e6465642079657460448201526064016105b0565b8054600160e01b900463ffffffff16421061158a5760405162461bcd60e51b815260206004820152601760248201527f52657665616c20706572696f642068617320656e64656400000000000000000060448201526064016105b0565b6001600160a01b03851660009081526002602081815260408084208885528252808420928501546001600160401b03600160a01b90910416845291815281832033845290529020805460601b6001600160601b0319166115fc5760405162461bcd60e51b81526004016105b090611c9a565b8054600283015460408051602081018790526001600160601b038816918101919091526001600160a01b03891660608083019190915260808201899052600160a01b9092046001600160401b031660a082015291901b6001600160601b0319169060c001604051602081830303815290604052805190602001206001600160601b031916146116c25760405162461bcd60e51b8152602060048201526012602482015271125b9d985b1a5908189a59081c995d99585b60721b60448201526064016105b0565b80546001600160601b03600160a01b9091048116908516111561171f5760405162461bcd60e51b8152602060048201526015602482015274139bdd08195b9bdd59da0818dbdb1b185d195c985b605a1b60448201526064016105b0565b6001828101805460009061173d9084906001600160401b0316611d63565b92506101000a8154816001600160401b0302191690836001600160401b031602179055508160010160089054906101000a90046001600160601b03166001600160601b0316846001600160601b031611156117fc576001820180546001600160401b038116600160401b918290046001600160601b03908116600160a01b0273ffffffffffffffffffffffff000000000000000019169190911790871691909102179055600282018054336001600160a01b0319909116179055610e83565b60018201546001600160601b03600160a01b90910481169085161115610e83576001820180546001600160a01b0316600160a01b6001600160601b03871602179055505050505050565b80356001600160a01b038116811461185d57600080fd5b919050565b80356001600160401b038116811461185d57600080fd5b6000806000806080858703121561188f57600080fd5b61189885611846565b9350602085013592506118ad60408601611862565b91506118bb60608601611846565b905092959194509250565b600080604083850312156118d957600080fd5b6118e283611846565b946020939093013593505050565b602080825282518282018190526000919060409081850190868401855b8281101561194557815180516001600160a01b031685528681015187860152850151858501526060909301929085019060010161190d565b5091979650505050505050565b6000806000806080858703121561196857600080fd5b61197185611846565b93506020850135925060408501356001600160601b03198116811461199557600080fd5b9396929550929360600135925050565b81516001600160a01b03168152610140810160208301516119ce602084018263ffffffff169052565b5060408301516119e6604084018263ffffffff169052565b5060608301516119fe606084018263ffffffff169052565b506080830151611a1960808401826001600160401b03169052565b5060a0830151611a3460a08401826001600160601b03169052565b5060c0830151611a4f60c08401826001600160601b03169052565b5060e0830151611a6a60e08401826001600160a01b03169052565b50610100838101516001600160401b031690830152610120928301516001600160a01b0316929091019190915290565b600080600060608486031215611aaf57600080fd5b611ab884611846565b925060208401359150611acd60408501611862565b90509250925092565b803563ffffffff8116811461185d57600080fd5b80356001600160601b038116811461185d57600080fd5b600080600080600080600060e0888a031215611b1c57600080fd5b611b2588611846565b965060208801359550611b3a60408901611846565b9450611b4860608901611ad6565b9350611b5660808901611ad6565b9250611b6460a08901611ad6565b9150611b7260c08901611aea565b905092959891949750929550565b600060208284031215611b9257600080fd5b5035919050565b60008060008060808587031215611baf57600080fd5b611bb885611846565b93506020850135925061199560408601611aea565b60208082526024908201527f41756374696f6e20646f6573206e6f7420657869737420666f722074686973206040820152636974656d60e01b606082015260800190565b6001600160a01b039384168152919092166020820152604081019190915260600190565b600060208284031215611c4757600080fd5b81518015158114611c5757600080fd5b9392505050565b634e487b7160e01b600052601160045260246000fd5b60006001600160401b03808316818103611c9057611c90611c5e565b6001019392505050565b60208082526023908201527f4e6f20636f6d6d69746d656e7420666f756e6420666f722074686973206269646040820152623232b960e91b606082015260800190565b6001600160a01b039290921682526001600160601b0316602082015260400190565b6001600160601b03828116828216039080821115611d1f57611d1f611c5e565b5092915050565b63ffffffff818116838216019080821115611d1f57611d1f611c5e565b6001600160401b03818116838216019080821115611d1f57611d1f611c5e565b6001600160401b03828116828216039080821115611d1f57611d1f611c5e56fea26469706673582212203165d09c733ff0ea52c94c50612a2df76972af028ddca79deb955e47fe19a9da64736f6c63430008140033608060405234801561001057600080fd5b50611f18806100206000396000f3fe608060405234801561001057600080fd5b50600436106100ea5760003560e01c80637cae57741161008c578063afa1671711610066578063afa16717146104df578063ea25c93f146104f2578063f16332db1461056a578063f43bad31146105a257600080fd5b80637cae57741461048657806388cedbc414610499578063a5025222146104ac57600080fd5b80634a49ac4c116100c85780634a49ac4c146102f75780634b288402146103265780636f9919b51461033b578063762a66a21461034e57600080fd5b8063110831ac146100ef578063417c73a7146101b457806344f91c1e146101e8575b600080fd5b6101816100fd3660046119bd565b604080518082018252600080825260209182018190526001600160a01b039687168152600282528281209581529481528185206001600160401b039490941685529283528084209190941683528152908290208251808401909352546001600160601b0319606082901b168352600160a01b90046001600160601b03169082015290565b6040805182516001600160601b03191681526020928301516001600160601b031692810192909252015b60405180910390f35b6101e66101c2366004611a0a565b6001600160a01b03166000908152600360205260409020805460ff19166001179055565b005b6102836101f6366004611a2c565b6001602081815260009384526040808520909152918352912080549181015460028201546003909201546001600160a01b038085169463ffffffff600160a01b808304821696600160c01b8404831696600160e01b909404909216946001600160401b03808516956001600160601b03600160401b8704811696859004169480821694900490911691168a565b604080516001600160a01b039b8c16815263ffffffff9a8b166020820152988a16908901529790951660608701526001600160401b0393841660808701526001600160601b0392831660a0870152911660c0850152851660e0840152166101008201529116610120820152610140016101ab565b6101e6610305366004611a0a565b6001600160a01b03166000908152600360205260409020805460ff19169055565b61032e6105b5565b6040516101ab9190611a56565b6101e6610349366004611ab8565b610637565b61047961035c366004611a2c565b6040805161014081018252600080825260208201819052918101829052606081018290526080810182905260a0810182905260c0810182905260e081018290526101008101829052610120810191909152506001600160a01b0380831660009081526001602081815260408084208685528252928390208351610140810185528154808716825263ffffffff600160a01b808304821695840195909552600160c01b8204811696830196909652600160e01b90049094166060850152918201546001600160401b0380821660808601526001600160601b03600160401b8304811660a08701529183900490911660c0850152600283015480861660e086015291909104166101008301526003015490911661012082015292915050565b6040516101ab9190611b0b565b6101e6610494366004611c00565b610938565b6101e66104a7366004611a2c565b610be8565b6104cf6104ba366004611a0a565b60036020526000908152604090205460ff1681565b60405190151581526020016101ab565b6101e66104ed366004611c67565b61101d565b6105426105003660046119bd565b6002602090815260009485526040808620825293855283852081529184528284209091528252902054606081901b90600160a01b90046001600160601b031682565b604080516001600160601b031990931683526001600160601b039091166020830152016101ab565b61057d610578366004611ce6565b61108c565b604080516001600160a01b0390941684526020840192909252908201526060016101ab565b6101e66105b0366004611cff565b6110c9565b60606000805480602002602001604051908101604052809291908181526020016000905b8282101561062e576000848152602090819020604080516060810182526003860290920180546001600160a01b03168352600180820154848601526002909101549183019190915290835290920191016105d9565b50505050905090565b6001600160a01b038416600090815260016020908152604080832086845290915290208054600160a01b900463ffffffff1661068e5760405162461bcd60e51b815260040161068590611d33565b60405180910390fd5b8054600160a01b900463ffffffff164210156106f75760405162461bcd60e51b815260206004820152602260248201527f42696464696e6720706572696f6420686173206e6f7420737461727465642079604482015261195d60f21b6064820152608401610685565b8054600160c01b900463ffffffff164211156107555760405162461bcd60e51b815260206004820152601860248201527f42696464696e6720706572696f642068617320656e64656400000000000000006044820152606401610685565b6001600160601b031983166107ac5760405162461bcd60e51b815260206004820152601a60248201527f436f6d6d69746d656e742063616e6e6f7420626520656d7074790000000000006044820152606401610685565b600082116107fc5760405162461bcd60e51b815260206004820152601760248201527f496e73756666696369656e7420636f6c6c61746572616c0000000000000000006044820152606401610685565b60038101546040516323b872dd60e01b81526001600160a01b03909116906323b872dd9061083290339030908790600401611d77565b6020604051808303816000875af1158015610851573d6000803e3d6000fd5b505050506040513d601f19601f820116820180604052508101906108759190611d9b565b506040805180820182526001600160601b0319851681526001600160601b0384811660208084019182526001600160a01b038a16600090815260028083528682208b83528352868220908801546001600160401b03600160a01b9182900481168452918452878320338452909352958120945192519093160260609190911c17909155600183018054909216919061090c83611dd3565b91906101000a8154816001600160401b0302191690836001600160401b03160217905550505050505050565b6001600160a01b038316600081815260016020908152604080832086845282528083209383526002825280832086845282528083206001600160401b0386168452825280832033845290915290208154600160e01b900463ffffffff1642116109e35760405162461bcd60e51b815260206004820152601b60248201527f52657665616c20706572696f6420686173206e6f7420656e64656400000000006044820152606401610685565b805460601b6001600160601b031916610a0e5760405162461bcd60e51b815260040161068590611df9565b8054600160a01b90046001600160601b0316610a785760405162461bcd60e51b815260206004820152602360248201527f4e6f20636f6c6c61746572616c206e6565647320746f2062652077697468647260448201526230bbb760e91b6064820152608401610685565b60028201546001600160a01b03163303610aed5760405162461bcd60e51b815260206004820152603060248201527f43616e6e6f7420776974686472617720636f6c6c61746572616c20746f20746860448201526f32903bb4b73734b733903134b23232b960811b6064820152608401610685565b6003820154815460405163a9059cbb60e01b81526001600160a01b039092169163a9059cbb91610b32913391600160a01b90046001600160601b031690600401611e3c565b6020604051808303816000875af1158015610b51573d6000803e3d6000fd5b505050506040513d601f19601f82011682018060405250810190610b759190611d9b565b5050604080518082018252600080825260208083018281526001600160a01b039098168252600281528382209682529586528281206001600160401b039095168152938552818420338552909452909120915192516001600160601b0316600160a01b0260609390931c92909217905550565b6001600160a01b038216600090815260016020908152604080832084845290915290208054600160a01b900463ffffffff16610c365760405162461bcd60e51b815260040161068590611d33565b8054600160e01b900463ffffffff164211610c935760405162461bcd60e51b815260206004820152601c60248201527f52657665616c696e6720706572696f64206973206e6f74206f766572000000006044820152606401610685565b60018101546001600160401b031615610cee5760405162461bcd60e51b815260206004820152601960248201527f4e6f7420616c6c2062696473206172652072657665616c6564000000000000006044820152606401610685565b805460028201546001600160a01b03908116911614610f615780546002820154604080516001600160a01b0387811682526020820187905293841681830152929091166060830152517f70f0c7140cab08317cd49cc744829435b3ed220274c9787906c318153ab908b19181900360800190a16002810154604051632142170760e11b81526001600160a01b03808616926342842e0e92610d9792309216908790600401611d77565b600060405180830381600087803b158015610db157600080fd5b505af1158015610dc5573d6000803e3d6000fd5b50505060038201548254600184015460405163a9059cbb60e01b81526001600160a01b03938416945063a9059cbb93610e149316916001600160601b03600160a01b9091041690600401611e3c565b6020604051808303816000875af1158015610e33573d6000803e3d6000fd5b505050506040513d601f19601f82011682018060405250810190610e579190611d9b565b506001600160a01b038381166000908152600260208181526040808420878552825280842092860154600160a01b8082046001600160401b0316865293835281852095168452939052918120600184015481549193610eca92918190046001600160601b03908116929190910416611e5e565b90506001600160601b03811615610f5a576003830154600284015460405163a9059cbb60e01b81526001600160a01b039283169263a9059cbb92610f15929116908590600401611e3c565b6020604051808303816000875af1158015610f34573d6000803e3d6000fd5b505050506040513d601f19601f82011682018060405250810190610f589190611d9b565b505b5050505050565b8054604080516001600160a01b0386811682526020820186905230828401529092166060830152517f70f0c7140cab08317cd49cc744829435b3ed220274c9787906c318153ab908b19181900360800190a18054604051632142170760e11b81526001600160a01b03808616926342842e0e92610fe692309216908790600401611d77565b600060405180830381600087803b15801561100057600080fd5b505af1158015611014573d6000803e3d6000fd5b50505050505050565b3360009081526003602052604090205460ff1680156110735760405162461bcd60e51b8152602060048201526012602482015271213630b1b5b634b9ba32b21039b2b63632b960711b6044820152606401610685565b6110828888888888888861148e565b5050505050505050565b6000818154811061109c57600080fd5b60009182526020909120600390910201805460018201546002909201546001600160a01b03909116925083565b6001600160a01b038416600090815260016020908152604080832086845290915290208054600160a01b900463ffffffff166111175760405162461bcd60e51b815260040161068590611d33565b8054600160c01b900463ffffffff164210156111755760405162461bcd60e51b815260206004820181905260248201527f42696464696e6720706572696f6420686173206e6f7420656e646564207965746044820152606401610685565b8054600160e01b900463ffffffff1642106111d25760405162461bcd60e51b815260206004820152601760248201527f52657665616c20706572696f642068617320656e6465640000000000000000006044820152606401610685565b6001600160a01b03851660009081526002602081815260408084208885528252808420928501546001600160401b03600160a01b90910416845291815281832033845290529020805460601b6001600160601b0319166112445760405162461bcd60e51b815260040161068590611df9565b8054600283015460408051602081018790526001600160601b038816918101919091526001600160a01b03891660608083019190915260808201899052600160a01b9092046001600160401b031660a082015291901b6001600160601b0319169060c001604051602081830303815290604052805190602001206001600160601b0319161461130a5760405162461bcd60e51b8152602060048201526012602482015271125b9d985b1a5908189a59081c995d99585b60721b6044820152606401610685565b80546001600160601b03600160a01b909104811690851611156113675760405162461bcd60e51b8152602060048201526015602482015274139bdd08195b9bdd59da0818dbdb1b185d195c985b605a1b6044820152606401610685565b600182810180546000906113859084906001600160401b0316611e85565b92506101000a8154816001600160401b0302191690836001600160401b031602179055508160010160089054906101000a90046001600160601b03166001600160601b0316846001600160601b03161115611444576001820180546001600160401b038116600160401b918290046001600160601b03908116600160a01b0273ffffffffffffffffffffffff000000000000000019169190911790871691909102179055600282018054336001600160a01b0319909116179055610f58565b60018201546001600160601b03600160a01b90910481169085161115610f58576001820180546001600160a01b0316600160a01b6001600160601b03871602179055505050505050565b428463ffffffff16116114e35760405162461bcd60e51b815260206004820181905260248201527f41756374696f6e206d75737420737461727420696e20746865206675747572656044820152606401610685565b6001600160a01b0387166000908152600160209081526040808320898452909152902054600160a01b900463ffffffff161561156f5760405162461bcd60e51b815260206004820152602560248201527f41756374696f6e20616c72656164792065786973747320666f72207468697320604482015264185cdcd95d60da1b6064820152608401610685565b60008363ffffffff16116115cf5760405162461bcd60e51b815260206004820152602160248201527f42696420706572696f64206d7573742062652067726561746572207468616e206044820152600360fc1b6064820152608401610685565b60008263ffffffff16116116315760405162461bcd60e51b8152602060048201526024808201527f52657665616c20706572696f64206d75737420626520677265617465722074686044820152630616e20360e41b6064820152608401610685565b6040516323b872dd60e01b815287906001600160a01b038216906323b872dd9061166390339030908c90600401611d77565b600060405180830381600087803b15801561167d57600080fd5b505af1158015611691573d6000803e3d6000fd5b50505050600084866116a39190611ea5565b905060006116b18583611ea5565b90506000600160008c6001600160a01b03166001600160a01b0316815260200190815260200160002060008b81526020019081526020016000209050338160000160006101000a8154816001600160a01b0302191690836001600160a01b03160217905550878160000160146101000a81548163ffffffff021916908363ffffffff160217905550828160000160186101000a81548163ffffffff021916908363ffffffff1602179055508181600001601c6101000a81548163ffffffff021916908363ffffffff16021790555060008160010160006101000a8154816001600160401b0302191690836001600160401b03160217905550848160010160086101000a8154816001600160601b0302191690836001600160601b03160217905550848160010160146101000a8154816001600160601b0302191690836001600160601b03160217905550338160020160006101000a8154816001600160a01b0302191690836001600160a01b03160217905550600160008c6001600160a01b03166001600160a01b0316815260200190815260200160002060008b815260200190815260200160002060020160149054906101000a90046001600160401b0316600161187d9190611ec2565b6002820180546001600160401b0392909216600160a01b0267ffffffffffffffff60a01b19909216919091179055600390810180546001600160a01b039a8b166001600160a01b031991821617909155604080516060810182529c8b168d5260208d019b8c5242908d01908152600080546001810182559080529c519c9092027f290decd9548b62a8d60345a988386fc84ba6bc95484008f6362f93160ef3e563810180549d909b169c9091169b909b17909855505095517f290decd9548b62a8d60345a988386fc84ba6bc95484008f6362f93160ef3e564880155505091517f290decd9548b62a8d60345a988386fc84ba6bc95484008f6362f93160ef3e56590940193909355505050565b80356001600160a01b03811681146119a157600080fd5b919050565b80356001600160401b03811681146119a157600080fd5b600080600080608085870312156119d357600080fd5b6119dc8561198a565b9350602085013592506119f1604086016119a6565b91506119ff6060860161198a565b905092959194509250565b600060208284031215611a1c57600080fd5b611a258261198a565b9392505050565b60008060408385031215611a3f57600080fd5b611a488361198a565b946020939093013593505050565b602080825282518282018190526000919060409081850190868401855b82811015611aab57815180516001600160a01b0316855286810151878601528501518585015260609093019290850190600101611a73565b5091979650505050505050565b60008060008060808587031215611ace57600080fd5b611ad78561198a565b93506020850135925060408501356001600160601b031981168114611afb57600080fd5b9396929550929360600135925050565b81516001600160a01b0316815261014081016020830151611b34602084018263ffffffff169052565b506040830151611b4c604084018263ffffffff169052565b506060830151611b64606084018263ffffffff169052565b506080830151611b7f60808401826001600160401b03169052565b5060a0830151611b9a60a08401826001600160601b03169052565b5060c0830151611bb560c08401826001600160601b03169052565b5060e0830151611bd060e08401826001600160a01b03169052565b50610100838101516001600160401b031690830152610120928301516001600160a01b0316929091019190915290565b600080600060608486031215611c1557600080fd5b611c1e8461198a565b925060208401359150611c33604085016119a6565b90509250925092565b803563ffffffff811681146119a157600080fd5b80356001600160601b03811681146119a157600080fd5b600080600080600080600060e0888a031215611c8257600080fd5b611c8b8861198a565b965060208801359550611ca06040890161198a565b9450611cae60608901611c3c565b9350611cbc60808901611c3c565b9250611cca60a08901611c3c565b9150611cd860c08901611c50565b905092959891949750929550565b600060208284031215611cf857600080fd5b5035919050565b60008060008060808587031215611d1557600080fd5b611d1e8561198a565b935060208501359250611afb60408601611c50565b60208082526024908201527f41756374696f6e20646f6573206e6f7420657869737420666f722074686973206040820152636974656d60e01b606082015260800190565b6001600160a01b039384168152919092166020820152604081019190915260600190565b600060208284031215611dad57600080fd5b81518015158114611a2557600080fd5b634e487b7160e01b600052601160045260246000fd5b60006001600160401b03808316818103611def57611def611dbd565b6001019392505050565b60208082526023908201527f4e6f20636f6d6d69746d656e7420666f756e6420666f722074686973206269646040820152623232b960e91b606082015260800190565b6001600160a01b039290921682526001600160601b0316602082015260400190565b6001600160601b03828116828216039080821115611e7e57611e7e611dbd565b5092915050565b6001600160401b03828116828216039080821115611e7e57611e7e611dbd565b63ffffffff818116838216019080821115611e7e57611e7e611dbd565b6001600160401b03818116838216019080821115611e7e57611e7e611dbd56fea2646970667358221220ad5d92536b258664340f582791cb8b9381c434f49c0e14d3b1ea0cb5f4cbce5a64736f6c6343000814003360a060405260405162000eb138038062000eb18339810160408190526200002691620003cd565b82816200003482826200009c565b505081604051620000459062000366565b6001600160a01b039091168152602001604051809103906000f08015801562000072573d6000803e3d6000fd5b506001600160a01b0316608052620000936200008d60805190565b62000102565b505050620004cb565b620000a78262000174565b6040516001600160a01b038316907fbc7cd75a20ee27fd9adebab32041f755214dbc6bffa90cc0225b39da2e5c2d3b90600090a2805115620000f457620000ef8282620001f4565b505050565b620000fe62000271565b5050565b7f7e644d79422f17c01e4894b5f4f588d331ebfa28653d42ae832dc59e38c9798f6200014460008051602062000e91833981519152546001600160a01b031690565b604080516001600160a01b03928316815291841660208301520160405180910390a1620001718162000293565b50565b806001600160a01b03163b600003620001b057604051634c9c8ce360e01b81526001600160a01b03821660048201526024015b60405180910390fd5b807f360894a13ba1a3210667c828492db98dca3e2076cc3735a920a3ca505d382bbc5b80546001600160a01b0319166001600160a01b039290921691909117905550565b6060600080846001600160a01b031684604051620002139190620004ad565b600060405180830381855af49150503d806000811462000250576040519150601f19603f3d011682016040523d82523d6000602084013e62000255565b606091505b50909250905062000268858383620002d6565b95945050505050565b3415620002915760405163b398979f60e01b815260040160405180910390fd5b565b6001600160a01b038116620002bf57604051633173bdd160e11b815260006004820152602401620001a7565b8060008051602062000e91833981519152620001d3565b606082620002ef57620002e9826200033c565b62000335565b81511580156200030757506001600160a01b0384163b155b156200033257604051639996b31560e01b81526001600160a01b0385166004820152602401620001a7565b50805b9392505050565b8051156200034d5780518082602001fd5b604051630a12f52160e11b815260040160405180910390fd5b610524806200096d83390190565b80516001600160a01b03811681146200038c57600080fd5b919050565b634e487b7160e01b600052604160045260246000fd5b60005b83811015620003c4578181015183820152602001620003aa565b50506000910152565b600080600060608486031215620003e357600080fd5b620003ee8462000374565b9250620003fe6020850162000374565b60408501519092506001600160401b03808211156200041c57600080fd5b818601915086601f8301126200043157600080fd5b81518181111562000446576200044662000391565b604051601f8201601f19908116603f0116810190838211818310171562000471576200047162000391565b816040528281528960208487010111156200048b57600080fd5b6200049e836020830160208801620003a7565b80955050505050509250925092565b60008251620004c1818460208701620003a7565b9190910192915050565b608051610487620004e66000396000601001526104876000f3fe608060405261000c61000e565b005b7f00000000000000000000000000000000000000000000000000000000000000006001600160a01b0316330361007b576000356001600160e01b03191663278f794360e11b14610071576040516334ad5dbb60e21b815260040160405180910390fd5b610079610083565b565b6100796100b2565b6000806100933660048184610312565b8101906100a09190610352565b915091506100ae82826100c2565b5050565b6100796100bd61011d565b610155565b6100cb82610179565b6040516001600160a01b038316907fbc7cd75a20ee27fd9adebab32041f755214dbc6bffa90cc0225b39da2e5c2d3b90600090a28051156101155761011082826101f5565b505050565b6100ae61026b565b60006101507f360894a13ba1a3210667c828492db98dca3e2076cc3735a920a3ca505d382bbc546001600160a01b031690565b905090565b3660008037600080366000845af43d6000803e808015610174573d6000f35b3d6000fd5b806001600160a01b03163b6000036101b457604051634c9c8ce360e01b81526001600160a01b03821660048201526024015b60405180910390fd5b7f360894a13ba1a3210667c828492db98dca3e2076cc3735a920a3ca505d382bbc80546001600160a01b0319166001600160a01b0392909216919091179055565b6060600080846001600160a01b0316846040516102129190610422565b600060405180830381855af49150503d806000811461024d576040519150601f19603f3d011682016040523d82523d6000602084013e610252565b606091505b509150915061026285838361028a565b95945050505050565b34156100795760405163b398979f60e01b815260040160405180910390fd5b60608261029f5761029a826102e9565b6102e2565b81511580156102b657506001600160a01b0384163b155b156102df57604051639996b31560e01b81526001600160a01b03851660048201526024016101ab565b50805b9392505050565b8051156102f95780518082602001fd5b604051630a12f52160e11b815260040160405180910390fd5b6000808585111561032257600080fd5b8386111561032f57600080fd5b5050820193919092039150565b634e487b7160e01b600052604160045260246000fd5b6000806040838503121561036557600080fd5b82356001600160a01b038116811461037c57600080fd5b9150602083013567ffffffffffffffff8082111561039957600080fd5b818501915085601f8301126103ad57600080fd5b8135818111156103bf576103bf61033c565b604051601f8201601f19908116603f011681019083821181831017156103e7576103e761033c565b8160405282815288602084870101111561040057600080fd5b8260208601602083013760006020848301015280955050505050509250929050565b6000825160005b818110156104435760208186018101518583015201610429565b50600092019182525091905056fea264697066735822122003885a60a5e7130e50426e1e9e703bd774cc4670ad34c7cd7969c2fa5af146b864736f6c63430008140033608060405234801561001057600080fd5b5060405161052438038061052483398101604081905261002f916100be565b806001600160a01b03811661005e57604051631e4fbdf760e01b81526000600482015260240160405180910390fd5b6100678161006e565b50506100ee565b600080546001600160a01b038381166001600160a01b0319831681178455604051919092169283917f8be0079c531659141344cd1fd0a4f28419497f9722a3daafe3b4186f6b6457e09190a35050565b6000602082840312156100d057600080fd5b81516001600160a01b03811681146100e757600080fd5b9392505050565b610427806100fd6000396000f3fe60806040526004361061004a5760003560e01c8063715018a61461004f5780638da5cb5b146100665780639623609d14610093578063ad3cb1cc146100a6578063f2fde38b146100e4575b600080fd5b34801561005b57600080fd5b50610064610104565b005b34801561007257600080fd5b506000546040516001600160a01b0390911681526020015b60405180910390f35b6100646100a1366004610272565b610118565b3480156100b257600080fd5b506100d7604051806040016040528060058152602001640352e302e360dc1b81525081565b60405161008a919061038e565b3480156100f057600080fd5b506100646100ff3660046103a8565b610187565b61010c6101ca565b61011660006101f7565b565b6101206101ca565b60405163278f794360e11b81526001600160a01b03841690634f1ef28690349061015090869086906004016103c5565b6000604051808303818588803b15801561016957600080fd5b505af115801561017d573d6000803e3d6000fd5b5050505050505050565b61018f6101ca565b6001600160a01b0381166101be57604051631e4fbdf760e01b8152600060048201526024015b60405180910390fd5b6101c7816101f7565b50565b6000546001600160a01b031633146101165760405163118cdaa760e01b81523360048201526024016101b5565b600080546001600160a01b038381166001600160a01b0319831681178455604051919092169283917f8be0079c531659141344cd1fd0a4f28419497f9722a3daafe3b4186f6b6457e09190a35050565b6001600160a01b03811681146101c757600080fd5b634e487b7160e01b600052604160045260246000fd5b60008060006060848603121561028757600080fd5b833561029281610247565b925060208401356102a281610247565b9150604084013567ffffffffffffffff808211156102bf57600080fd5b818601915086601f8301126102d357600080fd5b8135818111156102e5576102e561025c565b604051601f8201601f19908116603f0116810190838211818310171561030d5761030d61025c565b8160405282815289602084870101111561032657600080fd5b8260208601602083013760006020848301015280955050505050509250925092565b6000815180845260005b8181101561036e57602081850181015186830182015201610352565b506000602082860101526020601f19601f83011685010191505092915050565b6020815260006103a16020830184610348565b9392505050565b6000602082840312156103ba57600080fd5b81356103a181610247565b6001600160a01b03831681526040602082018190526000906103e990830184610348565b94935050505056fea2646970667358221220c97cce94f49bf52d188ca4b4357e9e4b59eb63a45a10687679e5c3e3235e4a3164736f6c63430008140033b53127684a568b3173ae13b9f8a6016e243e63b6e8ee1178d6a717850b5d6103",
    "linkReferences": {}
  },
  "methodIdentifiers": {
    "adminAddress()": "fc6f9468",
    "auctionLogicV1()": "c3e6226f",
    "auctionLogicV2()": "89ada6b5",
    "proxyAddress()": "23f5c02d",
    "proxyAdmin()": "3e47158c",
    "upgradeToV2()": "cc01053e"
  },
  "id": 44
}