{
  "abi": [
    {
      "anonymous": false,
      "inputs": [
        {
          "indexed": false,
          "internalType": "address",
          "name": "tokenContract",
          "type": "address"
        },
        {
          "indexed": false,
          "internalType": "uint256",
          "name": "tokenId",
          "type": "uint256"
        },
        {
          "indexed": false,
          "internalType": "address",
          "name": "from",
          "type": "address"
        },
        {
          "indexed": false,
          "internalType": "address",
          "name": "to",
          "type": "address"
        }
      ],
      "name": "AssetTransferred",
      "type": "event"
    },
    {
      "inputs": [
        {
          "internalType": "address",
          "name": "",
          "type": "address"
        },
        {
          "internalType": "uint256",
          "name": "",
          "type": "uint256"
        }
      ],
      "name": "auctions",
      "outputs": [
        {
          "internalType": "address",
          "name": "tokenContract",
          "type": "address"
        },
        {
          "internalType": "uint256",
          "name": "tokenId",
          "type": "uint256"
        },
        {
          "internalType": "uint256",
          "name": "createdTime",
          "type": "uint256"
        },
        {
          "internalType": "address",
          "name": "seller",
          "type": "address"
        },
        {
          "internalType": "uint32",
          "name": "startTime",
          "type": "uint32"
        },
        {
          "internalType": "uint32",
          "name": "endOfBiddingPeriod",
          "type": "uint32"
        },
        {
          "internalType": "uint32",
          "name": "endOfRevealPeriod",
          "type": "uint32"
        },
        {
          "internalType": "uint64",
          "name": "numUnrevealedBids",
          "type": "uint64"
        },
        {
          "internalType": "uint96",
          "name": "highestBid",
          "type": "uint96"
        },
        {
          "internalType": "uint96",
          "name": "secondHighestBid",
          "type": "uint96"
        },
        {
          "internalType": "address",
          "name": "highestBidder",
          "type": "address"
        },
        {
          "internalType": "uint64",
          "name": "index",
          "type": "uint64"
        },
        {
          "internalType": "address",
          "name": "erc20Token",
          "type": "address"
        }
      ],
      "stateMutability": "view",
      "type": "function"
    },
    {
      "inputs": [
        {
          "internalType": "address",
          "name": "",
          "type": "address"
        },
        {
          "internalType": "uint256",
          "name": "",
          "type": "uint256"
        },
        {
          "internalType": "uint64",
          "name": "",
          "type": "uint64"
        },
        {
          "internalType": "address",
          "name": "",
          "type": "address"
        }
      ],
      "name": "bids",
      "outputs": [
        {
          "internalType": "bytes20",
          "name": "commitment",
          "type": "bytes20"
        },
        {
          "internalType": "uint96",
          "name": "collateral",
          "type": "uint96"
        }
      ],
      "stateMutability": "view",
      "type": "function"
    },
    {
      "inputs": [
        {
          "internalType": "address",
          "name": "tokenContract",
          "type": "address"
        },
        {
          "internalType": "uint256",
          "name": "tokenId",
          "type": "uint256"
        },
        {
          "internalType": "bytes20",
          "name": "commitment",
          "type": "bytes20"
        },
        {
          "internalType": "uint256",
          "name": "erc20Tokens",
          "type": "uint256"
        }
      ],
      "name": "commitBid",
      "outputs": [],
      "stateMutability": "nonpayable",
      "type": "function"
    },
    {
      "inputs": [
        {
          "internalType": "address",
          "name": "tokenContract",
          "type": "address"
        },
        {
          "internalType": "uint256",
          "name": "tokenId",
          "type": "uint256"
        },
        {
          "internalType": "address",
          "name": "erc20Token",
          "type": "address"
        },
        {
          "internalType": "uint32",
          "name": "startTime",
          "type": "uint32"
        },
        {
          "internalType": "uint32",
          "name": "bidPeriod",
          "type": "uint32"
        },
        {
          "internalType": "uint32",
          "name": "revealPeriod",
          "type": "uint32"
        },
        {
          "internalType": "uint96",
          "name": "reservePrice",
          "type": "uint96"
        }
      ],
      "name": "createAuction",
      "outputs": [],
      "stateMutability": "nonpayable",
      "type": "function"
    },
    {
      "inputs": [
        {
          "internalType": "address",
          "name": "tokenContract",
          "type": "address"
        },
        {
          "internalType": "uint256",
          "name": "tokenId",
          "type": "uint256"
        }
      ],
      "name": "endAuction",
      "outputs": [],
      "stateMutability": "nonpayable",
      "type": "function"
    },
    {
      "inputs": [
        {
          "internalType": "address",
          "name": "tokenContract",
          "type": "address"
        },
        {
          "internalType": "uint256",
          "name": "tokenId",
          "type": "uint256"
        }
      ],
      "name": "getAuction",
      "outputs": [
        {
          "components": [
            {
              "internalType": "address",
              "name": "tokenContract",
              "type": "address"
            },
            {
              "internalType": "uint256",
              "name": "tokenId",
              "type": "uint256"
            },
            {
              "internalType": "uint256",
              "name": "createdTime",
              "type": "uint256"
            },
            {
              "internalType": "address",
              "name": "seller",
              "type": "address"
            },
            {
              "internalType": "uint32",
              "name": "startTime",
              "type": "uint32"
            },
            {
              "internalType": "uint32",
              "name": "endOfBiddingPeriod",
              "type": "uint32"
            },
            {
              "internalType": "uint32",
              "name": "endOfRevealPeriod",
              "type": "uint32"
            },
            {
              "internalType": "uint64",
              "name": "numUnrevealedBids",
              "type": "uint64"
            },
            {
              "internalType": "uint96",
              "name": "highestBid",
              "type": "uint96"
            },
            {
              "internalType": "uint96",
              "name": "secondHighestBid",
              "type": "uint96"
            },
            {
              "internalType": "address",
              "name": "highestBidder",
              "type": "address"
            },
            {
              "internalType": "uint64",
              "name": "index",
              "type": "uint64"
            },
            {
              "internalType": "address",
              "name": "erc20Token",
              "type": "address"
            }
          ],
          "internalType": "struct TokenizedVickreyAuction.Auction",
          "name": "auction",
          "type": "tuple"
        }
      ],
      "stateMutability": "view",
      "type": "function"
    },
    {
      "inputs": [],
      "name": "getAuctionArray",
      "outputs": [
        {
          "components": [
            {
              "internalType": "address",
              "name": "tokenContract",
              "type": "address"
            },
            {
              "internalType": "uint256",
              "name": "tokenId",
              "type": "uint256"
            },
            {
              "internalType": "uint256",
              "name": "createdTime",
              "type": "uint256"
            },
            {
              "internalType": "address",
              "name": "seller",
              "type": "address"
            },
            {
              "internalType": "uint32",
              "name": "startTime",
              "type": "uint32"
            },
            {
              "internalType": "uint32",
              "name": "endOfBiddingPeriod",
              "type": "uint32"
            },
            {
              "internalType": "uint32",
              "name": "endOfRevealPeriod",
              "type": "uint32"
            },
            {
              "internalType": "uint64",
              "name": "numUnrevealedBids",
              "type": "uint64"
            },
            {
              "internalType": "uint96",
              "name": "highestBid",
              "type": "uint96"
            },
            {
              "internalType": "uint96",
              "name": "secondHighestBid",
              "type": "uint96"
            },
            {
              "internalType": "address",
              "name": "highestBidder",
              "type": "address"
            },
            {
              "internalType": "uint64",
              "name": "index",
              "type": "uint64"
            },
            {
              "internalType": "address",
              "name": "erc20Token",
              "type": "address"
            }
          ],
          "internalType": "struct TokenizedVickreyAuction.Auction[]",
          "name": "",
          "type": "tuple[]"
        }
      ],
      "stateMutability": "view",
      "type": "function"
    },
    {
      "inputs": [
        {
          "internalType": "address",
          "name": "tokenContract",
          "type": "address"
        },
        {
          "internalType": "uint256",
          "name": "tokenId",
          "type": "uint256"
        },
        {
          "internalType": "uint64",
          "name": "auctionIndex",
          "type": "uint64"
        },
        {
          "internalType": "address",
          "name": "bidder",
          "type": "address"
        }
      ],
      "name": "getBid",
      "outputs": [
        {
          "components": [
            {
              "internalType": "bytes20",
              "name": "commitment",
              "type": "bytes20"
            },
            {
              "internalType": "uint96",
              "name": "collateral",
              "type": "uint96"
            }
          ],
          "internalType": "struct TokenizedVickreyAuction.Bid",
          "name": "bid",
          "type": "tuple"
        }
      ],
      "stateMutability": "view",
      "type": "function"
    },
    {
      "inputs": [
        {
          "internalType": "address",
          "name": "tokenContract",
          "type": "address"
        },
        {
          "internalType": "uint256",
          "name": "tokenId",
          "type": "uint256"
        },
        {
          "internalType": "uint96",
          "name": "bidValue",
          "type": "uint96"
        },
        {
          "internalType": "bytes32",
          "name": "nonce",
          "type": "bytes32"
        }
      ],
      "name": "revealBid",
      "outputs": [],
      "stateMutability": "nonpayable",
      "type": "function"
    },
    {
      "inputs": [
        {
          "internalType": "address",
          "name": "tokenContract",
          "type": "address"
        },
        {
          "internalType": "uint256",
          "name": "tokenId",
          "type": "uint256"
        },
        {
          "internalType": "uint64",
          "name": "auctionIndex",
          "type": "uint64"
        }
      ],
      "name": "withdrawCollateral",
      "outputs": [],
      "stateMutability": "nonpayable",
      "type": "function"
    }
  ],
  "bytecode": {
    "object": "0x608060405234801561001057600080fd5b506120de806100206000396000f3fe608060405234801561001057600080fd5b506004361061009e5760003560e01c80637cae5774116100665780637cae5774146102f457806388cedbc414610307578063afa167171461031a578063ea25c93f1461032d578063f43bad31146103a557600080fd5b8063110831ac146100a357806344f91c1e146101685780634b288402146102aa5780636f9919b5146102bf578063762a66a2146102d4575b600080fd5b6101356100b1366004611bb0565b604080518082018252600080825260209182018190526001600160a01b039687168152600282528281209581529481528185206001600160401b039490941685529283528084209190941683528152908290208251808401909352546001600160601b0319606082901b168352600160a01b90046001600160601b03169082015290565b6040805182516001600160601b03191681526020928301516001600160601b031692810192909252015b60405180910390f35b61021b610176366004611bfd565b6001602081815260009384526040808520909152918352912080549181015460028201546003830154600484015460058501546006909501546001600160a01b0396871696949593948381169463ffffffff600160a01b808704821696600160c01b8104831696600160e01b909104909216946001600160401b03808416956001600160601b03600160401b860481169695859004169480821694900490911691168d565b604080516001600160a01b039e8f168152602081019d909d528c019a909a52978b1660608b015263ffffffff96871660808b015294861660a08a01529290941660c08801526001600160401b0390811660e08801526001600160601b0393841661010088015292166101208601528516610140850152166101608301529091166101808201526101a00161015f565b6102b26103b8565b60405161015f9190611d27565b6102d26102cd366004611d76565b6104d8565b005b6102e76102e2366004611bfd565b6107e2565b60405161015f9190611dc9565b6102d2610302366004611dd8565b61093c565b6102d2610315366004611bfd565b610bef565b6102d2610328366004611e3f565b611039565b61037d61033b366004611bb0565b6002602090815260009485526040808620825293855283852081529184528284209091528252902054606081901b90600160a01b90046001600160601b031682565b604080516001600160601b031990931683526001600160601b0390911660208301520161015f565b6102d26103b3366004611ebe565b6117ab565b60606000805480602002602001604051908101604052809291908181526020016000905b828210156104cf576000848152602090819020604080516101a0810182526007860290920180546001600160a01b039081168452600180830154858701526002830154938501939093526003820154808216606086015263ffffffff600160a01b80830482166080880152600160c01b8304821660a0880152600160e01b9092041660c086015260048301546001600160401b0380821660e08801526001600160601b03600160401b8304811661010089015291839004909116610120870152600584015480841661014088015291909104166101608501526006909101541661018083015290835290920191016103dc565b50505050905090565b6001600160a01b038416600090815260016020908152604080832086845290915290206003810154600160a01b900463ffffffff166105325760405162461bcd60e51b815260040161052990611ef2565b60405180910390fd5b6003810154600160a01b900463ffffffff1642101561059e5760405162461bcd60e51b815260206004820152602260248201527f42696464696e6720706572696f6420686173206e6f7420737461727465642079604482015261195d60f21b6064820152608401610529565b6003810154600160c01b900463ffffffff164211156105ff5760405162461bcd60e51b815260206004820152601860248201527f42696464696e6720706572696f642068617320656e64656400000000000000006044820152606401610529565b6001600160601b031983166106565760405162461bcd60e51b815260206004820152601a60248201527f436f6d6d69746d656e742063616e6e6f7420626520656d7074790000000000006044820152606401610529565b600082116106a65760405162461bcd60e51b815260206004820152601760248201527f496e73756666696369656e7420636f6c6c61746572616c0000000000000000006044820152606401610529565b60068101546040516323b872dd60e01b81526001600160a01b03909116906323b872dd906106dc90339030908790600401611f36565b6020604051808303816000875af11580156106fb573d6000803e3d6000fd5b505050506040513d601f19601f8201168201806040525081019061071f9190611f5a565b506040805180820182526001600160601b0319851681526001600160601b0384811660208084019182526001600160a01b038a166000908152600282528581208a8252825285812060058801546001600160401b03600160a01b9182900481168452918452878320338452909352958120945192519093160260609190911c1790915560048301805490921691906107b683611f99565b91906101000a8154816001600160401b0302191690836001600160401b03160217905550505050505050565b604080516101a081018252600080825260208201819052918101829052606081018290526080810182905260a0810182905260c0810182905260e081018290526101008101829052610120810182905261014081018290526101608101829052610180810191909152506001600160a01b03808316600090815260016020818152604080842086855282529283902083516101a08101855281548616815292810154918301919091526002810154928201929092526003820154808416606083015263ffffffff600160a01b80830482166080850152600160c01b8304821660a0850152600160e01b9092041660c083015260048301546001600160401b0380821660e08501526001600160601b03600160401b8304811661010086015291839004909116610120840152600584015480861661014085015291909104166101608201526006909101549091166101808201525b92915050565b6001600160a01b038316600081815260016020908152604080832086845282528083209383526002825280832086845282528083206001600160401b0386168452825280832033845290915290206003820154600160e01b900463ffffffff1642116109ea5760405162461bcd60e51b815260206004820152601b60248201527f52657665616c20706572696f6420686173206e6f7420656e64656400000000006044820152606401610529565b805460601b6001600160601b031916610a155760405162461bcd60e51b815260040161052990611fbf565b8054600160a01b90046001600160601b0316610a7f5760405162461bcd60e51b815260206004820152602360248201527f4e6f20636f6c6c61746572616c206e6565647320746f2062652077697468647260448201526230bbb760e91b6064820152608401610529565b60058201546001600160a01b03163303610af45760405162461bcd60e51b815260206004820152603060248201527f43616e6e6f7420776974686472617720636f6c6c61746572616c20746f20746860448201526f32903bb4b73734b733903134b23232b960811b6064820152608401610529565b6006820154815460405163a9059cbb60e01b81526001600160a01b039092169163a9059cbb91610b39913391600160a01b90046001600160601b031690600401612002565b6020604051808303816000875af1158015610b58573d6000803e3d6000fd5b505050506040513d601f19601f82011682018060405250810190610b7c9190611f5a565b5050604080518082018252600080825260208083018281526001600160a01b039098168252600281528382209682529586528281206001600160401b039095168152938552818420338552909452909120915192516001600160601b0316600160a01b0260609390931c92909217905550565b6001600160a01b038216600090815260016020908152604080832084845290915290206003810154600160a01b900463ffffffff16610c405760405162461bcd60e51b815260040161052990611ef2565b6003810154600160e01b900463ffffffff164211610ca05760405162461bcd60e51b815260206004820152601c60248201527f52657665616c696e6720706572696f64206973206e6f74206f766572000000006044820152606401610529565b60048101546001600160401b031615610cfb5760405162461bcd60e51b815260206004820152601960248201527f4e6f7420616c6c2062696473206172652072657665616c6564000000000000006044820152606401610529565b600381015460058201546001600160a01b03908116911614610f775760038101546005820154604080516001600160a01b0387811682526020820187905293841681830152929091166060830152517f70f0c7140cab08317cd49cc744829435b3ed220274c9787906c318153ab908b19181900360800190a16005810154604051632142170760e11b81526001600160a01b03808616926342842e0e92610daa92309216908790600401611f36565b600060405180830381600087803b158015610dc457600080fd5b505af1158015610dd8573d6000803e3d6000fd5b505050506006810154600382015460048084015460405163a9059cbb60e01b81526001600160a01b039485169463a9059cbb94610e2994911692600160a01b90046001600160601b03169101612002565b6020604051808303816000875af1158015610e48573d6000803e3d6000fd5b505050506040513d601f19601f82011682018060405250810190610e6c9190611f5a565b506001600160a01b03838116600090815260026020908152604080832086845282528083206005860154600160a01b8082046001600160401b0316865291845282852095168452939091528120600484015481549193610ee092918190046001600160601b03908116929190910416612024565b90506001600160601b03811615610f70576006830154600584015460405163a9059cbb60e01b81526001600160a01b039283169263a9059cbb92610f2b929116908590600401612002565b6020604051808303816000875af1158015610f4a573d6000803e3d6000fd5b505050506040513d601f19601f82011682018060405250810190610f6e9190611f5a565b505b5050505050565b6003810154604080516001600160a01b0386811682526020820186905230828401529092166060830152517f70f0c7140cab08317cd49cc744829435b3ed220274c9787906c318153ab908b19181900360800190a16003810154604051632142170760e11b81526001600160a01b03808616926342842e0e9261100292309216908790600401611f36565b600060405180830381600087803b15801561101c57600080fd5b505af1158015611030573d6000803e3d6000fd5b50505050505050565b428463ffffffff161161108e5760405162461bcd60e51b815260206004820181905260248201527f41756374696f6e206d75737420737461727420696e20746865206675747572656044820152606401610529565b6001600160a01b0387166000908152600160209081526040808320898452909152902060030154600160a01b900463ffffffff161561111d5760405162461bcd60e51b815260206004820152602560248201527f41756374696f6e20616c72656164792065786973747320666f72207468697320604482015264185cdcd95d60da1b6064820152608401610529565b60008363ffffffff161161117d5760405162461bcd60e51b815260206004820152602160248201527f42696420706572696f64206d7573742062652067726561746572207468616e206044820152600360fc1b6064820152608401610529565b60008263ffffffff16116111df5760405162461bcd60e51b8152602060048201526024808201527f52657665616c20706572696f64206d75737420626520677265617465722074686044820152630616e20360e41b6064820152608401610529565b6040516323b872dd60e01b815287906001600160a01b038216906323b872dd9061121190339030908c90600401611f36565b600060405180830381600087803b15801561122b57600080fd5b505af115801561123f573d6000803e3d6000fd5b5050505060008486611251919061204b565b9050600061125f858361204b565b90506000600160008c6001600160a01b03166001600160a01b0316815260200190815260200160002060008b815260200190815260200160002090508a8160000160006101000a8154816001600160a01b0302191690836001600160a01b03160217905550898160010181905550428160020181905550338160030160006101000a8154816001600160a01b0302191690836001600160a01b03160217905550878160030160146101000a81548163ffffffff021916908363ffffffff160217905550828160030160186101000a81548163ffffffff021916908363ffffffff1602179055508181600301601c6101000a81548163ffffffff021916908363ffffffff16021790555060008160040160006101000a8154816001600160401b0302191690836001600160401b03160217905550848160040160086101000a8154816001600160601b0302191690836001600160601b03160217905550848160040160146101000a8154816001600160601b0302191690836001600160601b03160217905550338160050160006101000a8154816001600160a01b0302191690836001600160a01b03160217905550600160008c6001600160a01b03166001600160a01b0316815260200190815260200160002060008b815260200190815260200160002060050160149054906101000a90046001600160401b031660016114669190612068565b8160050160146101000a8154816001600160401b0302191690836001600160401b03160217905550888160060160006101000a8154816001600160a01b0302191690836001600160a01b0316021790555060008190806001815401808255809150506001900390600052602060002090600702016000909190919091506000820160009054906101000a90046001600160a01b03168160000160006101000a8154816001600160a01b0302191690836001600160a01b0316021790555060018201548160010155600282015481600201556003820160009054906101000a90046001600160a01b03168160030160006101000a8154816001600160a01b0302191690836001600160a01b031602179055506003820160149054906101000a900463ffffffff168160030160146101000a81548163ffffffff021916908363ffffffff1602179055506003820160189054906101000a900463ffffffff168160030160186101000a81548163ffffffff021916908363ffffffff16021790555060038201601c9054906101000a900463ffffffff1681600301601c6101000a81548163ffffffff021916908363ffffffff1602179055506004820160009054906101000a90046001600160401b03168160040160006101000a8154816001600160401b0302191690836001600160401b031602179055506004820160089054906101000a90046001600160601b03168160040160086101000a8154816001600160601b0302191690836001600160601b031602179055506004820160149054906101000a90046001600160601b03168160040160146101000a8154816001600160601b0302191690836001600160601b031602179055506005820160009054906101000a90046001600160a01b03168160050160006101000a8154816001600160a01b0302191690836001600160a01b031602179055506005820160149054906101000a90046001600160401b03168160050160146101000a8154816001600160401b0302191690836001600160401b031602179055506006820160009054906101000a90046001600160a01b03168160060160006101000a8154816001600160a01b0302191690836001600160a01b0316021790555050505050505050505050505050565b6001600160a01b038416600090815260016020908152604080832086845290915290206003810154600160a01b900463ffffffff166117fc5760405162461bcd60e51b815260040161052990611ef2565b6003810154600160c01b900463ffffffff1642101561185d5760405162461bcd60e51b815260206004820181905260248201527f42696464696e6720706572696f6420686173206e6f7420656e646564207965746044820152606401610529565b6003810154600160e01b900463ffffffff1642106118bd5760405162461bcd60e51b815260206004820152601760248201527f52657665616c20706572696f642068617320656e6465640000000000000000006044820152606401610529565b6001600160a01b0385166000908152600260209081526040808320878452825280832060058501546001600160401b03600160a01b90910416845282528083203384529091529020805460601b6001600160601b0319166119305760405162461bcd60e51b815260040161052990611fbf565b8054600583015460408051602081018790526001600160601b038816918101919091526001600160a01b03891660608083019190915260808201899052600160a01b9092046001600160401b031660a082015291901b6001600160601b0319169060c001604051602081830303815290604052805190602001206001600160601b031916146119f65760405162461bcd60e51b8152602060048201526012602482015271125b9d985b1a5908189a59081c995d99585b60721b6044820152606401610529565b80546001600160601b03600160a01b90910481169085161115611a535760405162461bcd60e51b8152602060048201526015602482015274139bdd08195b9bdd59da0818dbdb1b185d195c985b605a1b6044820152606401610529565b60048201805460019190600090611a749084906001600160401b0316612088565b92506101000a8154816001600160401b0302191690836001600160401b031602179055508160040160089054906101000a90046001600160601b03166001600160601b0316846001600160601b03161115611b33576004820180546001600160401b038116600160401b918290046001600160601b03908116600160a01b0273ffffffffffffffffffffffff000000000000000019169190911790871691909102179055600582018054336001600160a01b0319909116179055610f6e565b60048201546001600160601b03600160a01b90910481169085161115610f6e576004820180546001600160a01b0316600160a01b6001600160601b03871602179055505050505050565b80356001600160a01b0381168114611b9457600080fd5b919050565b80356001600160401b0381168114611b9457600080fd5b60008060008060808587031215611bc657600080fd5b611bcf85611b7d565b935060208501359250611be460408601611b99565b9150611bf260608601611b7d565b905092959194509250565b60008060408385031215611c1057600080fd5b611c1983611b7d565b946020939093013593505050565b80516001600160a01b0316825260208101516020830152604081015160408301526060810151611c6260608401826001600160a01b03169052565b506080810151611c7a608084018263ffffffff169052565b5060a0810151611c9260a084018263ffffffff169052565b5060c0810151611caa60c084018263ffffffff169052565b5060e0810151611cc560e08401826001600160401b03169052565b50610100818101516001600160601b03908116918401919091526101208083015190911690830152610140808201516001600160a01b0390811691840191909152610160808301516001600160401b0316908401526101809182015116910152565b6020808252825182820181905260009190848201906040850190845b81811015611d6a57611d56838551611c27565b928401926101a09290920191600101611d43565b50909695505050505050565b60008060008060808587031215611d8c57600080fd5b611d9585611b7d565b93506020850135925060408501356001600160601b031981168114611db957600080fd5b9396929550929360600135925050565b6101a081016109368284611c27565b600080600060608486031215611ded57600080fd5b611df684611b7d565b925060208401359150611e0b60408501611b99565b90509250925092565b803563ffffffff81168114611b9457600080fd5b80356001600160601b0381168114611b9457600080fd5b600080600080600080600060e0888a031215611e5a57600080fd5b611e6388611b7d565b965060208801359550611e7860408901611b7d565b9450611e8660608901611e14565b9350611e9460808901611e14565b9250611ea260a08901611e14565b9150611eb060c08901611e28565b905092959891949750929550565b60008060008060808587031215611ed457600080fd5b611edd85611b7d565b935060208501359250611db960408601611e28565b60208082526024908201527f41756374696f6e20646f6573206e6f7420657869737420666f722074686973206040820152636974656d60e01b606082015260800190565b6001600160a01b039384168152919092166020820152604081019190915260600190565b600060208284031215611f6c57600080fd5b81518015158114611f7c57600080fd5b9392505050565b634e487b7160e01b600052601160045260246000fd5b60006001600160401b03808316818103611fb557611fb5611f83565b6001019392505050565b60208082526023908201527f4e6f20636f6d6d69746d656e7420666f756e6420666f722074686973206269646040820152623232b960e91b606082015260800190565b6001600160a01b039290921682526001600160601b0316602082015260400190565b6001600160601b0382811682821603908082111561204457612044611f83565b5092915050565b63ffffffff81811683821601908082111561204457612044611f83565b6001600160401b0381811683821601908082111561204457612044611f83565b6001600160401b0382811682821603908082111561204457612044611f8356fea2646970667358221220dcf2c685bb458695d24d61b1e4a1d8b364e345cb6fdb94fcf46395ae43a047f764736f6c63430008140033",
    "linkReferences": {}
  },
  "methodIdentifiers": {
    "auctions(address,uint256)": "44f91c1e",
    "bids(address,uint256,uint64,address)": "ea25c93f",
    "commitBid(address,uint256,bytes20,uint256)": "6f9919b5",
    "createAuction(address,uint256,address,uint32,uint32,uint32,uint96)": "afa16717",
    "endAuction(address,uint256)": "88cedbc4",
    "getAuction(address,uint256)": "762a66a2",
    "getAuctionArray()": "4b288402",
    "getBid(address,uint256,uint64,address)": "110831ac",
    "revealBid(address,uint256,uint96,bytes32)": "f43bad31",
    "withdrawCollateral(address,uint256,uint64)": "7cae5774"
  },
  "id": 36
}